:020000040800F2
:10000000905001209D01000891510008652C0008C6
:100010008D510008711000080962000800000000FE
:1000200000000000000000000000000099510008DE
:10003000FD10000800000000955100089D510008C7
:10004000B7010008B7010008B7010008B7010008B0
:10005000B7010008B7010008B7010008B7010008A0
:10006000B7010008B7010008B7010008B701000890
:10007000B7010008B7010008B7010008B701000880
:10008000B7010008B7010008B7010008B701000870
:10009000B7010008B7010008B7010008B701000860
:1000A000B7010008B70100086D520008615200084E
:1000B000B7010008B7010008B7010008B701000840
:1000C000B7010008B7010008B7010008B701000830
:1000D000B7010008B7010008B7010008B701000820
:1000E000B7010008B7010008B7010008B701000810
:1000F000B7010008B7010008B7010008B701000800
:10010000B7010008B7010008B7010008B7010008EF
:10011000B7010008B7010008B7010008B7010008DF
:10012000B7010008B7010008B7010008B7010008CF
:10013000B7010008B7010008B7010008B7010008BF
:10014000B7010008B7010008B7010008B7010008AF
:1001500075100008B7010008B7010008FD6100082C
:10016000B7010008B7010008B7010008B70100088F
:10017000B7010008B7010008B7010008000000003F
:10018000B7010008B7010008DFF80CD000F0D2FA80
:1001900000480047E97E000890500120064880474B
:1001A00006480047FEE7FEE7FEE7FEE7FEE7FEE75C
:1001B000FEE7FEE7FEE7FEE74D5200088901000872
:1001C0002DE9F05F0546002092469B46884606468C
:1001D000814640241BE0284641464746224600F01F
:1001E000F9F953465A46C01A914110D311461846A0
:1001F000224600F0E0F92D1A67EB01084F4622462F
:100200000120002100F0D7F917EB00094E41201E14
:10021000A4F10104DFDC484631462A464346BDE8E6
:10022000F09FD2B201E000F8012B491EFBD27047CB
:100230000022F6E710B513460A4604461946FFF7B2
:10024000F0FF204610BD421C10F8011B0029FBD115
:10025000801A70472DE9FE4F804681EA0300C00FE7
:100260000C46009021F0004123F00045B8EB02005D
:10027000A94105D24046214690461C460B460246FF
:1002800023F00040104347D0270DC7F30A00C3F303
:100290000A510290401A019040286BDAC3F3130010
:1002A00040F4801B0098924620B10023D2EB030A51
:1002B00063EB0B0B01985946C0F14002504600F029
:1002C0007AF906460D4650465946019A00F092F9D1
:1002D00010EB08006141002487EA115284EAE773B9
:1002E0001A4340D0009A62B3019A012A4FEA07529A
:1002F00015DC001B61EB02014FF0004202EA0752DD
:10030000CDE90042001C41F5801132462B4600F039
:1003100092F903B0BDE8F08F40462146F9E7001B93
:1003200061EB0201001C41F5801300185B412018AD
:10033000A2F5001747EB030140EAD570B6196D41ED
:1003400011E06D084FEA360645EAC0754FEA0752DC
:10035000001B61EB0201001C41F5801149084FEAC6
:1003600030000019514132462B4603B0BDE8F04F32
:1003700000F052B90098012240000023D0EB0202A5
:1003800063EBE073009821464FEAE074B8EB00009D
:1003900061EB0401E9E783F000435BE781F0004192
:1003A00058E72DE9FE4F81EA030404F0004421F0F0
:1003B000004100944FF0000B23F0004350EA010489
:1003C0005ED052EA03045BD0C3F30A54C1F30A556A
:1003D0002C44A4F2F3340194A0FB0254C1F31301A2
:1003E00041F48011C3F3130343F4801301FB02446F
:1003F00000FB034E840A970A44EA815447EA835774
:10040000A4FB076802958D0A05FB07854FEA932C2C
:1004100004FB0C542705029D4FEA065847EA16379D
:10042000B5EB08056EEB070C870E920E47EA8117B5
:1004300042EA8312A7FB0201B6EB0B0164EB000456
:100440002B0D43EA0C335E1844EB1C50DA46514640
:10045000E7FB0201C5F313044FEA0B3343EA1453DD
:100460004FEA0432019C43EA0603A4F10C0402940F
:10047000009CCDE900B400F0DEF803B0BDE8F08FD9
:1004800000200146F9E72DE9F04D81EA030404F06C
:10049000004B21F0004514464FF0000A23F00041C4
:1004A00050EA050220D054EA01021DD0C5F30A57D4
:1004B0000246C5F31303C1F31300C1F30A5640F417
:1004C000801543F48013A7EB0608101BD64608F2EC
:1004D000FD3873EB050002D308F1010801E0921822
:1004E0005B41B8F1000F03DA00200146BDE8F08D52
:1004F00000204FF48011064684460EE0171B73EB74
:10050000050705D3121B63EB050306434CEA010CF8
:1005100049084FEA300092185B4150EA0107EDD1DB
:1005200052EA030012D082EA040083EA050108437C
:1005300005D0101BAB4106D20122002306E00022A9
:100540004FF0004302E06FF0010253101AEB060077
:100550004CEB085110EB0A0041EB0B01BDE8F04DEC
:1005600000F05AB800F0004230F000400AD0C10D4F
:1005700001F56071C0F3160042EA0151C20840075C
:100580001143704700200146704730B50B460146C5
:1005900000202022012409E021FA02F59D4205D322
:1005A00003FA02F5491B04FA02F52844151EA2F1CC
:1005B0000102F1DC30BD202A04DB203A00FA02F10E
:1005C000002070479140C2F1200320FA03F3194341
:1005D00090407047202A04DB203A21FA02F00021E3
:1005E000704721FA02F3D040C2F120029140084343
:1005F00019467047202A06DBCB17203A41FA02F051
:1006000043EAE07306E041FA02F3D040C2F120026F
:10061000914008431946704710B5141E73F1000449
:1006200008DA401C41F1000192185B411A4301D1E4
:1006300020F0010010BD2DE9F04D92469B4611B10E
:10064000B1FA81F202E0B0FA80F220329046FFF770
:10065000B2FF04460F4640EA0A0041EA0B01534646
:100660005A46084313D0114653EA010019D0C8F185
:1006700040025046FFF7AEFF05460E46504659462B
:100680004246FFF798FF084305D0012004E02046CA
:100690003946BDE8F08D0020054346EAE0762C435C
:1006A00037430A986305E40AA0EB08000022FD0A1C
:1006B00044EA47540A3002D500200146E9E7010523
:1006C00010196941DDE9084500196941BDE8F04D9F
:1006D000A2E7C1F30A52C1F3130140F2FF3341F420
:1006E00080119A4202DA00200146704740F23343FB
:1006F0009A42A2F2334202DC5242FFF76BBFFFF78D
:100700005ABF000030B5041E71F1000404DB4FF045
:100710000044404264EB0101141E73F1000405DB48
:100720001C464FF00043524263EB0403994208BF5A
:10073000904230BD1CB5094800900948019005461B
:10074000009C06E0E06840F0010394E80700984749
:100750001034AC42F6D3FFF71BFD0000FCCB0108C0
:100760001CCC010840F22000C2F200000021017000
:100770007047000040F22000C2F20000007870478D
:10078000B0B582B046F20445C4F20205D5F8841033
:10079000D5F88820D5F88C300DA007F003FC002098
:1007A000C4F201000168C2680369446C13A000949C
:1007B00007F0F8FB40F22000C2F2000029684278FE
:1007C00003781CA002B0BDE8B04007F0EBBB00BF4F
:1007D000444D412020533543523D30782530386C0C
:1007E00058204E4454523D256C75205041523D30A6
:1007F000782530386C580D0A0000000054494D31FE
:10080000204352313D30782530386C5820444945DA
:10081000523D30782530386C582053523D30782581
:1008200030386C5820424454523D30782530386C72
:10083000580D0A00444D412020484953523D30781C
:100840002530386C58206572723D256420726561D0
:1008500064793D25640D0A0010B582B0002043F68E
:1008600030010190C4F202010A684EF64C1442F4C1
:1008700080020A600968C2F2000401F4800101915B
:10088000019946F28841C4F202014FF040624FF4F0
:100890008063C4E9001204F110014FF4006C4FF4BE
:1008A000005E81E808504FF440310122C4E90200A3
:1008B000E061C4E90810C4E90A202063204600F082
:1008C0007DFC4EF6AC10C2F200000462A06344202E
:1008D0000121002200F08AFE442002B0BDE8104051
:1008E00000F072BE28A151F820100020C4F20100CF
:1008F000026822F001020260426C22F4004242646B
:10090000C26822F48072C2600122C1624261002288
:1009100002618369013123F07803836183694908A7
:1009200043F0640383614163016A41F001010162A4
:1009300040F22001C2F200010A704A7046F288417A
:10094000C4F202014FF4746241F87C2C41F21002AF
:10095000C4F202028A6040F24C52C2F20002CA6043
:100960004FF480524A600A6842F015020A60C1687A
:1009700041F48071C160016841F001010160416C86
:1009800041F40041416470474703000053000000F8
:100990001000000040F27800C2F20000C0787047FA
:1009A00080B504F0F3FF4CF63A40C0F60000012198
:1009B00004F000FD4CF63340C0F60000002104F0C6
:1009C000F9FC4CF62540C0F60000012104F0F2FCD1
:1009D0004CF62C40C0F60000002104F0EBFC04F0C3
:1009E00023FD02A0BDE8804005F042B8E5B0B1E7C4
:1009F000BBAA207C20E8AFB7E68C895BE5BC80E52C
:100A0000A78BE6B58BE9878F5D000000704700007B
:100A100040F27801C2F20001087800284FF000008F
:100A20001CBF0870012070472DE9F04F81B02DEDFB
:100A3000028B86B0002800F0E082994690468346FB
:100A40008A4605F065F840F27804C2F20004A07806
:100A5000B8F1000F18BFBAF1000F15D1002800F04F
:100A6000CC829BF80C20002A00F0AF82042A02F00E
:100A7000030023D29FED010A002351E00000000093
:100A8000286B6ECE286B6E4E0028E7D14FEA4800E7
:100A900008F040F9002800F0B082B8F1040F08F027
:100AA000030C73D21FED0A0A1FED0A1A0021A64695
:100AB000BCF1000F40F0BF80F5E000BF1FED110A50
:100AC00002F0FC01ABF11007002300BF97ED0B1AF9
:100AD00097ED0C2A97ED0D3AB4EE401A97ED0E4AB9
:100AE000F1EE10FAC8BFB0EE410AB4EE402AF1EEC2
:100AF00010FAC8BFB0EE420AB4EE403AF1EE10FA76
:100B0000C8BFB0EE430AB4EE404AF1EE10FA03F16A
:100B10000403C8BFB0EE440A994207F11007D5D1CB
:100B20000BF11C0100B301EB830393ED001AB4EE4B
:100B3000401AF1EE10FAC8BFB0EE410A012813D0F6
:100B400093ED011AB4EE401AF1EE10FAC8BFB0EE00
:100B5000410A022808D093ED021AB4EE401AF1EED1
:100B600010FAC8BFB0EE410AB7EE001AB4EE410A5F
:100B7000F1EE10FAB8BFB0EE410A002A00F025826B
:100B8000042A80F09B810023E2E100BF28F00301EA
:100B90001FED450A1FED451AAAF110034942002234
:100BA00093ED042A93ED053AB4EE402AF1EE10FAE3
:100BB000B4EE412A93ED064A93ED075AC8BFB0EE52
:100BC000420AF1EE10FAB4EE403AB8BFB0EE421A63
:100BD000F1EE10FAB4EE413AC8BFB0EE430AF1EEBE
:100BE00010FAB4EE404AB8BFB0EE431AF1EE10FA74
:100BF000B4EE414AC8BFB0EE440AF1EE10FAB4EECA
:100C0000405AB8BFB0EE441AF1EE10FAB4EE415AB1
:100C1000C8BFB0EE450AF1EE10FAA2F1040203F1EA
:100C20001003B8BFB0EE451A9142B9D15142A64661
:100C3000BCF1000F37D00AEB810191ED002AB4EE30
:100C4000402AF1EE10FAB4EE412AC8BFB0EE420AD3
:100C5000F1EE10FAB8BFB0EE421ABCF1010F22D08B
:100C600091ED012AB4EE402AF1EE10FAB4EE412AD9
:100C7000C8BFB0EE420AF1EE10FAB8BFB0EE421AA9
:100C8000BCF1020F0FD091ED022AB4EE402AF1EE32
:100C900010FAB4EE412AC8BFB0EE420AF1EE10FAE3
:100CA000B8BFB0EE421A30EE410AB7EE002A9FED0F
:100CB000E33AB4EE420AF1EE10FAB8BFB0EE420ADF
:100CC00020EE032A32EE023A33EE000AB8F1040FA6
:100CD00032EE411A02D2002255E000BF9FEDCC2A2D
:100CE00028F00303AAF11007811E00224FF4E676D4
:100CF00097ED043A97ED054A31EE033A83EE003A58
:100D000031EE044A97ED065A84EE004A97ED076AE1
:100D100031EE055A85EE005A00EB420504321037D9
:100D200023EE023ABDEEC33A13EE104A31EE063A14
:100D300083EE003A24EE024AB4F5E67F28BF34463B
:100D4000BDEEC44A4C8014EE104A25EE024AB4F5BA
:100D5000E67F28BF3446BDEEC44A6C8014EE104ACC
:100D6000B4F5E67F23EE023ABDEEC33A28BF34461F
:100D7000AC8013EE105AB5F5E67F28BF354621F852
:100D8000085F9342B4D1BCF1000F48D00AEB820156
:100D900091ED002A4FF4E67131EE022A82EE003A1C
:100DA0009FED9B2A23EE023ABDEEC33A13EE103AB2
:100DB000B3F5E67F28BF0B46BCF1010F20F81230D7
:100DC0002DD0531C0AEB830797ED003A31EE033A1E
:100DD00083EE003A23EE023ABDEEC33A13EE107AE8
:100DE000B7F5E67F38BF3946BCF1020F20F8131083
:100DF00015D0911C0AEB810292ED003A31EE031AF4
:100E000081EE000A20EE020ABDEEC00A10EE102AA2
:100E1000B2F5E67F28BF4FF4E67220F811209BED73
:100E2000020A01EE109AB8EE411A81EE001AB5EEF0
:100E3000400A4FEA5801F1EE10FA0646BDEEC11A1B
:100E400011EE102AD8BF0A46B9F1000F08BF0A46B2
:100E5000511E89B241459EF8031028BF4246002921
:100E600018BF02EB420291B2414538BF8846414665
:100E700004F028FC304607F025FFDBF80800DBE92A
:100E80000054FFF76FFB9FED600B53EC102BFFF747
:100E9000FAFA064628460F46FFF764FB41EC180BAA
:100EA0002046FFF75FFB41EC100B8DED008B64A03B
:100EB00032463B468DED020B9DE000BF0DF1120363
:100EC000A3F108076FF00C039FED511A9FED512A13
:100ED00003EA8206002500230BEB050494ED073A94
:100EE00094ED084A83EE003A84EE004A94ED095AE4
:100EF00094ED0A6A85EE005A86EE006A1035AE421D
:100F000003F1040323EE013A23EE023ABDEEC33AA5
:100F100013EE104A24EE013A23EE023ABDEEC33A34
:100F200027F8084F13EE104A25EE013A23EE023A55
:100F3000BDEEC33A7C8013EE104A26EE013A23EE52
:100F4000023ABDEEC33ABC8013EE104AFC80C3D116
:100F5000D8B301EB830797ED001A9FED2E2A81EE9F
:100F6000003A9FED2B1A0DF11207012823EE013AEA
:100F700023EE023ABDEEC33A13EE106A27F813606F
:100F800023D05E1C01EB860595ED003A022883EE26
:100F9000003A23EE013A23EE023ABDEEC33A13EED5
:100FA000105A27F8165010D0981C01EB800191EDD3
:100FB000003A83EE000A20EE010A20EE020ABDEE9E
:100FC000C00A10EE101A27F810100BF110000DF1E6
:100FD000120104F05DFADBF80800FFF7C3FA9FED99
:100FE0000A0B53EC102BFFF74EFA9BF80C700246DD
:100FF00009A00B46009704F03BFD06B0BDEC028B48
:1010000001B0BDE8F08F00BF0000000000408F403D
:101010000000E643CDCC4C3FE9A291E8B0B1207C82
:1010200020663D252E31666B487A207C20E8B09002
:10103000E6B3A2E695B03D2564000000CDCCCC3DE2
:10104000E6B3A2E5BDA2207C20663D252E31666B6D
:10105000487A207C205670703D252E31666D5620D2
:101060007C2056726D733D252E31666D5600000052
:10107000FEE7000046F28842C4F2020252F8843CC5
:10108000002040F2200CC4F201001905C2F2000C4D
:1010900018D54FF4006142F87C1C116821F0110151
:1010A000116000215160C16821F48071C160016844
:1010B00021F001010160416C21F4004141640121F2
:1010C0008CF80010990558BF70474FF4007142F832
:1010D0007C1C116821F005011160C16821F4807148
:1010E000C160016821F001010160416C21F40041FF
:1010F000416401208CF80100704700007047000037
:1011000072B600BFFEE7000070B5866D044600F0C1
:10111000EBF994F83510022928D105462068216C96
:10112000026822F016020260426922F080024261E7
:1011300009B9A16C19B1016821F0080101600168C9
:1011400021F00101016000BF20680068C00715D0D0
:1011500000F0CAF9401B0628F6D320206065032062
:1011600084F83500002184F8341070BD802060655B
:101170000120002184F8341070BD00BFE06D3F21D4
:1011800001FA00F0B060012084F835000020002151
:1011900084F8341070BD000090F83510022909D190
:1011A000052180F835100068016821F00101016017
:1011B0000020704780214165012070472DE9F041F2
:1011C000044600F091F9ECB10546022084F83500A0
:1011D0000020216884F83400086820F001000860CD
:1011E00021680868C00711D000F07EF9401B05286F
:1011F000F6D9032520230320636584F83550BDE824
:10120000F08100BF0120BDE8F08100BF086848F20E
:101210003F02CFF21002D4E9013500EA020C04F1DA
:101220000C0898E8C10143EA0C032B431843D4E9A6
:10123000072E304338431043626A40EA0E00042A06
:1012400040EA08031CD1206BD4E90A2E40EA0E00C4
:10125000184308604869BEF1000F20F0030040EA1F
:10126000020040F0040C11D0B8F5005F36D0B8F1A0
:10127000000F45D1022A46D0012A3BD032B942E0C4
:101280000B60486920F0070040EA020C01F0F8000A
:101290004AF6AB221038CAF6AA22A0FB02231A098A
:1012A0004CF2C033C1F814C0C0F600039A5C40F29F
:1012B000FF335F284FF03F0021EA030100FA02F0FC
:1012C00088BF0431C4E9161288600023012500207C
:1012D000636584F83550BDE8F08100BF032AD5D896
:1012E000012540230120DFE802F0030E030500BFC3
:1012F00082E700BFAEF1C070B0FA80F0400904E0B0
:10130000032A04D3C2D1CEF300600028BED0012549
:1013100040230120636584F83550BDE8F08100006A
:10132000B0B5044600F0E0F8054640F21000C2F205
:1013300000000078611C18BF044400BF00F0D4F81E
:10134000401BA042FAD3B0BD2DE9F04F83B000F1AD
:10135000200200F13E4741F60045009207F1FF7779
:10136000C4F2020508224FEAB726A84208BF0722A6
:1013700000254FF000084FF00009072E38BF4FEA54
:10138000B72201920AE000BF09F1010908F1020841
:10139000B9F1100F05F1040500F0A2800F680122D9
:1013A00002FA09FE17EA0E0AEED0D1F804C00322B1
:1013B0000CF003077E1E02FA08F4012E6FEA040BFC
:1013C00012D88468CE6804EA0B0406FA08F634439F
:1013D0008460446824EA0E06CCF3001404FA09F48D
:1013E0002643466004E000BF032F01D103271EE01F
:1013F000C6688C6806EA0B0604FA08F42643022F36
:10140000C66014D16FF00302009E02EA590756F835
:1014100007C005F01C040F220B69A2402CEA02024F
:10142000A3401A43F251D1F804C00CF0030702683C
:1014300007FA08F302EA0B021A431CF4403F026069
:10144000A2D0002243F644030292C4F202031A68B7
:1014500043F6004442F480421A601A68C4F2010460
:1014600002F480420292029A29F003024FF6084CDD
:101470002244CFF6FF7C52F80C3005F00C070F2603
:10148000BE40B343019E06FA07F73B4342F80C30D7
:10149000A2684B6842EA0A0743F60C4CDE0258BFCA
:1014A00022EA0A07A760C4F2010CDCF800209E02C1
:1014B00042EA0A0758BF22EA0A07CCF800706268BD
:1014C0009E0342EA0A0758BF22EA0A0767602268B9
:1014D000DB0342EA0A0758BF22EA0A07276053E7FC
:1014E00003B0BDE8F08F000044F68820C2F201008E
:1014F0000068704740F2100044F68821C2F20000F4
:10150000C2F2010100780A681044086070470000C8
:1015100080B543F60040C4F20200016841F4007156
:101520000160016841F480610160016841F48071EB
:101530000160032000F086F80F2000F005F800F0AD
:1015400027F8002080BD000070B540F21006C2F2FE
:10155000000640F218013278C2F200014FF47A73AB
:101560000968B3FBF2F20446B1FBF2F1084600F061
:101570005FFB0F2C4FF0010508D838B94FF0FF3052
:1015800021460022002500F031F87460284670BD25
:1015900082B0002043F640010190C4F202014A6883
:1015A00042F480424A604A6802F480420192019A01
:1015B0000090086840F080500860086800F0805093
:1015C0000090009802B07047002848BF704700F0B4
:1015D0001F01012202FA01F11C2202EAD0004EF2A0
:1015E0000012CEF2000281507047000010B54EF696
:1015F0000C5CCEF2000CDCF80030C3F3022E8EF04F
:101600000704042C28BF0424BEF103034FF0FF3E5F
:101610000EFA04F438BF0023A14399400EFA03F3F5
:101620009A43114300F00F0200F160430901043AAC
:1016300003F564436244002848BF02F10C031970AB
:1016400010BD00004EF60C51CEF200010A684FF6B4
:10165000FF031A4060F30A2242F0806040F0FD7000
:1016600008607047002804BF012070472DE9F04151
:1016700043F60808C4F202080446D8F8F8030D46F9
:1016800000F00700884207D288F8F853D8F8F8032A
:1016900000F00700A84277D12068810717D54107DD
:1016A00005D5D8F8001041F4E051C8F80010010742
:1016B00005D5D8F8001041F46041C8F80010D8F8FA
:1016C0000010A26821F0F0011143C8F80010C00713
:1016D00040D1D8F8F80300F00700A84207D988F8ED
:1016E000F853D8F8F80300F00700A8424CD120685E
:1016F000410707D5D8F80010E26821F4E051114302
:10170000C8F80010000708D5D8F80000216920F4B7
:10171000604040EAC100C8F8000000F07DF8D8F849
:10172000001048F6CA52C1F30311C0F60002515C22
:1017300040F2180220FA01F140F21400C2F2000057
:101740000068C2F200021160FFF7FEFE0020BDE853
:10175000F08100BF6068811E022907D258F8081C7A
:1017600089015CBF0120BDE8F08111E0012807D1AB
:1017700058F8081C89035CBF0120BDE8F08107E030
:1017800058F8081C890703D40120BDE8F08100BF88
:10179000D8F8001021F003010843C8F80000FFF753
:1017A000A3FE064641F28837D8F80000616800F0D1
:1017B0000C00B0EB810F8CD0FFF796FE801BB84277
:1017C000F2D90320BDE8F08140F2180043F6080189
:1017D000C2F20000C4F202010068096848F6DA5259
:1017E000C1F38221C0F60002515CC840704700007E
:1017F00040F2180043F60801C2F20000C4F20201F0
:101800000068096848F6DA52C1F34231C0F60002B6
:10181000515CC8407047000010B543F60404C4F2A0
:101820000204606800F00C0008280BD0042819BFDF
:1018300042F20040C0F2F40047F64000C0F27D10D2
:1018400010BD00BF206821682368490247F64001A7
:10185000C0F27D1100F03F02C3F388105CBF42F27A
:101860000041C0F2F401A1FB00010023FEF7A8FC37
:1018700021680222C1F3014102EB4101B0FBF1F00A
:1018800010BD0000002804BF012070472DE9F04181
:1018900082B00446007843F60006C007C4F2020690
:1018A0000CD0B06800F00C00042840F08180306853
:1018B000800303D56068002800F0688120788007E5
:1018C0001BD5B06810F00C0F09D0B06800F00C0008
:1018D000082840F087807068400200F183803068FB
:1018E000800703D5E068012840F050813068216905
:1018F00020F0F80040EAC10030602078000713D4DF
:10190000207840072AD4A569002D00F03A81B068FC
:1019100000F00C00082840F0A580012D40F00E8159
:10192000012002B0BDE8F0816069002800F08280EB
:101930000020C4F247200121C0F8801EFFF7D4FD2B
:10194000054600BF706F8007DAD4FFF7CDFD401B5E
:101950000228F7D9032002B0BDE8F081306C5FEABD
:10196000C0080AD400200190306C40F080503064F0
:10197000306C00F080500190019847F20007C4F2EB
:1019800000073868C00547D4386840F48070386074
:10199000FFF7AAFD054600BF3868C0053CD4FFF735
:1019A000A3FD401B0228F7D9032002B0BDE8F08157
:1019B000B06800F00C00082803D1706840023FF5C1
:1019C00076AF61683068B1F5803F07D0B1F5A02FE0
:1019D00040F09A8040F480203060306840F48030DD
:1019E00030609AE0E068002840F20000C4F247202E
:1019F0005CD001210160FFF777FD05463068800764
:101A00003FF574AFFFF770FD401B0228F6D90320A5
:101A100002B0BDE8F08100BFA168306F012905D098
:101A2000052955D140F004003067306F40F00100C7
:101A3000306756E00020C4F247200021C0F8801E25
:101A4000FFF752FD054600BF706F80077FF558AF66
:101A5000FFF74AFD401B0228F6D9032002B0BDE87B
:101A6000F08100BF0027C4F2472700203866FFF747
:101A70003BFD022D05460DD13068800140F18A8082
:101A8000FFF732FD401B02284FF00300F4D902B0EB
:101A9000BDE8F0813068800173D5FFF725FD401B5C
:101AA00002284FF00300F5D9F1E700BF00210160E3
:101AB000FFF71AFD054600BF306880077FF51DAFB0
:101AC000FFF712FD401B02284FF00300F4D9DEE7B8
:101AD00020F001003067306F002920F004003067EB
:101AE0007AD0FFF701FD054641F28837306F800755
:101AF00000F18480FFF7F8FC401BB842F6D90320C0
:101B000002B0BDE8F08100BF20F480303060306862
:101B1000002920F4802030607AD0FFF7E5FC0546EC
:101B2000306880033FF5CAAEFFF7DEFC401B642837
:101B3000F6D9032002B0BDE8F08100BF7068E1690A
:101B400000F480028A4221D1216A00F03F028A42D9
:101B50001CD147F6C071626A0140B1EB821F15D1FA
:101B6000A16A4FF6FF73C903994300F44032A1F50F
:101B700080318A420AD1E16A00F07060B0EB016FF7
:101B800004D1002002B0BDE8F08100BF012002B006
:101B9000BDE8F08104F11C052FCD084340EA821016
:101BA000D9034FF6FF729143A1F5803140EA0560F9
:101BB0000843706001203866FFF796FC044600BFBA
:101BC00030688001DDD4FFF78FFC001B02284FF046
:101BD0000300F5D95BE700BFFFF786FC054641F23D
:101BE000883700BF306F800708D5FFF77DFC401BAA
:101BF000B8424FF00300F5D949E700BFB8F1000F34
:101C00003FF581AE306C20F0805030647BE600BF41
:101C1000FFF76AFC054600BF306880037FF54EAED3
:101C2000FFF762FC401B64284FF00300F4D92EE755
:101C3000411E0020B0EB116F1CBF012070474EF217
:101C40001002CEF2000251604EF62351CEF2000196
:101C5000F0230B70072190601160704770470000FF
:101C60007047000090F83C20012A04BF0220704712
:101C7000B0B501F108053CCDD1E900CE23F47C5389
:101C800022F470521A432EF4F0431A432CF4E0432A
:101C90001A4324F4C0431A432A43C96922F48042F8
:101CA000036811435964002180F83C100020B0BD46
:101CB00090F83C20012A4FF0020254D010B580F871
:101CC0003D200268D2F804E0D2F808C00C682EF07B
:101CD0007003234341F2FF74C4F20004A242536034
:101CE0000EDC40F2FF73C4F200039A4216DCB2F13C
:101CF000804F2BD040F20043C4F2000324E000BF29
:101D000040F2FF33C4F201039A4213DC41F60003B0
:101D1000C4F200039A4219D0002313E040F60003F6
:101D2000C4F200039A4211D040F60043C4F200030B
:101D30000AE000BF44F20003C4F201039A4205D056
:101D400040F20043C4F201039A4204D149682CF0E6
:101D50008003194391600121002280F83D1080F832
:101D60003C20BDE81040104670470000002804BF2A
:101D70000120704710B5044690F83D0028B90020B6
:101D800084F83C00204600F01FF8022084F83D0053
:101D90002068211D03F070FA012084F8460084F8C1
:101DA0003E0084F83F0084F8400084F8410084F845
:101DB000420084F8430084F8440084F8450084F825
:101DC0003D00002010BD000000680021C4F20101A8
:101DD000884218BF704780B582B00020019043F65A
:101DE0004400C4F202000168002241F001010160D8
:101DF0000068002100F00100019001981A20FFF70F
:101E0000F5FB1A20FFF7E0FB1B2000210022FFF763
:101E1000EDFB1B2002B0BDE88040FFF7D5BB000002
:101E200090F83C20012A4FF002026CD080B580F877
:101E30003D20D0F800C04FF67772DCF8083023EA76
:101E40000202CCF808200B684F2B29DC1F2B45DD44
:101E5000202B46D0302B44D0402B40F0AF80D1F81F
:101E600004E0C968DCF82030DCF8202022F0010210
:101E7000CCF82020DCF8182022F0F00242EA011110
:101E800023F00A0242EA0E02CCF81810CCF8202007
:101E9000DCF8081041F0470121F0300128E000BFD4
:101EA0006F2B33DDB3F5005F74D0B3F5805F21D0C5
:101EB000702B40F08380D1E901E3C968DCF8082089
:101EC00043EA0E0322F47F4243EA01211143CCF896
:101ED0000810DCF8081041F0770109E00BB1102B75
:101EE0006CD1DCF8081021F07001194341F00701B2
:101EF000CCF808100022012180F83D10002180F864
:101F00003C10BDE880401046704700BF502B21D0E8
:101F1000602B53D1D1F804E0C968DCF82030DCF83C
:101F2000202022F01002CCF82020DCF8182022F427
:101F3000704242EA013123F0A00242EA0E12CCF8CC
:101F40001810CCF82020DCF8081041F0670121F0CF
:101F50001001CDE7D1F804E0C968DCF82030DCF8E6
:101F6000202022F00102CCF82020DCF8182022F0FA
:101F7000F00242EA011123F00A0242EA0E02CCF812
:101F80001810CCF82020DCF8081041F0570121F09F
:101F90002001ADE7D1E901E3C968DCF8082043EA94
:101FA0000E0322F47F4243EA01211143CCF80810CA
:101FB000DCF8081041F480419AE700BF01229AE75B
:101FC0007047000070B504460068C5680669B1072F
:101FD00016D515F0020113D06FF002010161012145
:101FE00021778069800703D02046FFF7E9FF05E0ED
:101FF000204600F069F9204600F098F9002020778B
:10200000700719D515F0040016D020686FF0040190
:10201000016102212177806910F4407F04D02046BD
:10202000FFF7CEFF06E000BF204600F04DF9204646
:1020300000F07CF900202077300717D515F0080054
:1020400014D020686FF00801016104212177C06974
:10205000800703D02046FFF7B3FF05E0204600F0DD
:1020600033F9204600F062F900202077F00619D5F8
:1020700015F0100016D020686FF0100101610821E2
:102080002177C06910F4407F04D02046FFF798FF05
:1020900006E000BF204600F017F9204600F046F9A0
:1020A00000202077F00718BF15F0010002D130069C
:1020B00009D412E020686FF001010161204600F0B0
:1020C00037F9300609D515F0800006D020686FF08A
:1020D000800101612046FFF7C1FD700609D515F0AA
:1020E000400006D020686FF040010161204600F0FA
:1020F00021F9B00658BF70BD15F0200008D0216846
:102100006FF0200220460A61BDE87040FFF7A8BDCD
:1021100070BD000090F83C30012B04BF02207047D6
:102120004FEAB202032A00F2C980F0B5DFE802F0FC
:10213000028A3264026840F20045136A166A23F08C
:10214000020326F001061662D2F804E0D2F818C0A5
:102150008E6842F48064C4F20105AC4243EA06038F
:1021600005D1CE6823F00C0326F0040633430E6835
:10217000AC4206D1D1E905472EF44075254345EA26
:10218000070E2CF073073743C2F804E097614968E3
:10219000516389E0026840F20045136A176A23F42C
:1021A000007327F480771762D2F804E0D2F81CC0DD
:1021B0008E6842F48064C4F20105AC4243EA06230F
:1021C00007D1CE6840F2FF47360223F44063BE4396
:1021D00033430E68AC4206D1D1E905452EF4405791
:1021E000254347EA051E2CF073073743C2F804E085
:1021F000D7614968D16357E0026840F20047D2F8DE
:1022000020E0136A42F4806623F48053136253681B
:10221000D4690D68D1F808C0C4F20107BE4204D1E8
:102220004E6923F4804343EA861324F4E64646EAE3
:1022300005265360D66149682EF4005747EA0C33EF
:10224000116431E0026840F20045136A176A23F016
:10225000200327F010071762D2F804E0D2F818C064
:102260008E6842F48064C4F20105AC4243EA06136E
:1022700007D1CE686FF0400723F0C00307EA0616C7
:1022800033430E68AC4206D1D1E905452EF44067D0
:10229000254347EA850E2CF4E64747EA0627C2F8AD
:1022A00004E097614968916300211362BDE8F04042
:1022B000002280F83C200846704700BF0121002220
:1022C00080F83C200846704770470000002804BF93
:1022D0000120704710B5044690F83D0028B9002051
:1022E00084F83C00204600F01FF8022084F83D00EE
:1022F0002068211D02F0C0FF012084F8460084F808
:102300003E0084F83F0084F8400084F8410084F8DF
:10231000420084F8430084F8440084F8450084F8BF
:102320003D00002010BD0000704700007047000015
:1023300070470000704700007047000070470000C1
:10234000B0B582B001680A68CC684B6902F02F050D
:10235000202D04F0200505D125B102B0BDE8B04024
:1023600003F058BE5FEA027C1EBF03F0010E04F4C6
:10237000907313EB0E0341D1036BD50618D5012BD7
:1023800016D114F0100313D0002201920A680192B2
:102390004A680192019A496949064BD4818DC28DE0
:1023A000C38D002B18BF914240F0068202B0B0BD31
:1023B00013062DD514F080032AD090F84120212A4D
:1023C000F4D18268B2F5805F03D10269002A00F07F
:1023D0007982026A531C036212784A60C28C013A05
:1023E0001304C284E2D1C86820F08000C860C868C5
:1023F00040F04000C86002B0B0BD00BFD30718BFB6
:1024000014F4807340F0E280530700F1E580EAE0C5
:102410005206CBD514F04002C8D0CA6822F0400260
:10242000CA60202180F8411002B0BDE8B04000F041
:1024300017BC00BFC26B11684B68858D99B200292B
:1024400000F0B480A94280F0B180C385D169B1F5B4
:10245000807F00F0A080016851E8031F026821F42A
:10246000807142E80313DBB1016851E8031F026881
:1024700021F4807142E8031393B1016851E8031F0E
:10248000026821F4807142E803134BB1016851E8FE
:10249000031F026821F4807142E80313002BDAD194
:1024A000016851E8051F026821F0010142E80513A7
:1024B000BBB3016851E8051F026821F0010142E841
:1024C000051373B3016851E8051F026821F001018B
:1024D00042E805132BB3016851E8051F026821F09B
:1024E000010142E80513002BDAD11AE0016851E836
:1024F000051F026821F0400142E80513DBB10168C5
:1025000051E8051F026821F0400142E8051393B12C
:10251000016851E8051F026821F0400142E80513F7
:102520004BB1016851E8051F026821F0400142E803
:102530000513002BDAD1202180F84210002101631D
:10254000016851E8031F026821F0100142E80313FB
:10255000DBB1016851E8031F026821F0100142E875
:10256000031393B1016851E8031F026821F01001C1
:1025700042E803134BB1016851E8031F026821F0E0
:10258000100142E80313002BDAD1C16B0446084660
:10259000FEF7BAFD204602214163818DC28D891A62
:1025A00089B202B0BDE8B040FFF7C6BE8D427FF4ED
:1025B000FDAED269B2F5807F7FF4F8AE02224263AD
:1025C00002B0BDE8B040FFF7B7BE00BF436C43F0B8
:1025D00001034364530706D5BEF1000F03D0436CDB
:1025E00043F002034364930706D5BEF1000F03D006
:1025F000436C43F004034364BCF1000F06D55EEA6C
:10260000050303D0436C43F008034364436C002B81
:102610003FF4CCAE920605D525B1044603F0FAFC92
:10262000216820464969426C01F0400102F008022D
:10263000891800F0B98000BF016851E8031F0268E3
:1026400021F4907142E80313BBB3016851E8031F02
:10265000026821F4907142E8031373B3016851E8F2
:10266000031F026821F4907142E803132BB3016841
:1026700051E8031F026821F4907142E80313002B14
:10268000DAD11AE0016851E8051F026821F0010162
:1026900042E80513DBB1016851E8051F026821F02B
:1026A000010142E8051393B1016851E8051F026872
:1026B00021F0010142E805134BB1016851E8051F03
:1026C000026821F0010142E80513002BDAD1016B09
:1026D000012924D1016851E8031F026821F010018B
:1026E00042E80313DBB1016851E8031F026821F0DF
:1026F000100142E8031393B1016851E8031F026817
:1027000021F0100142E803134BB1016851E8031FA7
:10271000026821F0100142E80313002BDAD12021D6
:1027200080F842100021016301684969490640F1BF
:10273000C380016851E8051F026821F0400142E8AA
:102740000513DBB1016851E8051F026821F0400163
:1027500042E8051393B1016851E8051F026821F0B2
:10276000400142E805134BB1016851E8051F0268BA
:1027700021F0400142E80513002BDAD1C16B00299A
:1027800000F09A8046F20902C0F6000204460846AC
:102790000A65FEF701FD00283FF408AEE06B016D0D
:1027A00002B0BDE8B04008470446FFF7C7FD00206F
:1027B000606402B0B0BD00BF891A00BF026852E871
:1027C000032F036822F4907243E80325BDB3026827
:1027D00052E8032F036822F4907243E8032575B38F
:1027E000026852E8032F036822F4907243E803253D
:1027F0002DB3026852E8032F036822F4907243E875
:102800000325002DDAD11AE0026852E8052F03688B
:1028100022F0010243E80525DDB1026852E8052FE8
:10282000036822F0010243E8052595B1026852E8E9
:10283000052F036822F0010243E805254DB1026827
:1028400052E8052F036822F0010243E80525002D18
:10285000DAD1202280F8422000220263026852E886
:10286000032F036822F0100243E80325DDB102685C
:1028700052E8032F036822F0100243E8032595B1C4
:10288000026852E8032F036822F0100243E8032590
:102890004DB1026852E8032F036822F0100243E8AA
:1028A0000325002DDAD1022289B2426302B0BDE8CD
:1028B000B040FFF741BD00BF02B0BDE8B040FFF738
:1028C0003DBD00BF026A32F8023B6FF35F234B60ED
:1028D000026283E5002804BF0120704710B504465A
:1028E00090F8410028B9002084F84000204600F00C
:1028F00021F8242084F841002068C16821F40051A7
:10290000C160204603F006FC2068016921F4904173
:102910000161416921F02A014161C16841F400511E
:10292000C16000202021606484F8411084F84210C6
:10293000606310BD80B586B0006841F20042C4F209
:10294000010200219042CDE90411CDE9021101916B
:1029500030D041F20001C4F2010188425BD1002075
:1029600043F630010090C4F202014A6942F01002BD
:102970004A614A6902F010020092009A00900A68C7
:1029800042F001020A60096801F00101009100991A
:102990004FF4C06101910221CDE90210032004909F
:1029A000072005900020C4F2020001A9FEF7CCFC2C
:1029B00006B080BD43F630000091C4F202004269C7
:1029C00042F020024261426902F020020092009A25
:1029D0000091026842F004020260006800F0040006
:1029E00000900098C02001900220CDE90201032050
:1029F0000490082005900020C4F2020000F5006059
:102A000001A9FEF7A1FC472000210022FEF7EEFD00
:102A10004720FEF7D9FD06B080BD000090F8423097
:102A2000202B07D100294FF0010318BF002A05D140
:102A30001846704702231846704700BF00230363FF
:102A4000816222218285C285436480F84210016937
:102A5000006819B1C16841F48071C160416941F0F9
:102A600001014161C16841F02001C1601846704711
:102A7000006841F20041C4F20101884218BF70476A
:102A800010B540F27404C2F200046088013081B2D3
:102A90000529608003D8217807A005F083FA207803
:102AA00002F0BCFF4EF63C20C2F20000214601229B
:102AB000BDE81040FFF7B2BF525820627974653A02
:102AC000203078253032580D0A0000002DE9F043FF
:102AD00081B0044690F84100202809D100294FF028
:102AE000010018BF002A07D101B0BDE8F08300BF84
:102AF000022001B0BDE8F0830020606421201D4663
:102B00000E4684F841001746FEF7EEFCA784E784E2
:102B1000A1688146B1F5805F02D1206900285DD0AF
:102B200037460020E28C2168002A5DD06A1C24D040
:102B3000002D4AD0804600BF0868000608D4FEF782
:102B4000D3FCA0EB0900A8427AD82168C868F3E753
:102B500017B117F8010B04E038F8020B00276FF3E8
:102B60005F204860E08C0138E084E08C0028E3D1ED
:102B70003AE000BF0A68120609D40A68120606D4B1
:102B80000A6812065CBF0A685FEA0262F2D51FB1EA
:102B900017F8012B05E000BF30F8022B00276FF378
:102BA0005F224A60E28C013AE284E28C002AE4D19E
:102BB0001AE000BF30F8022B00276FF35F224A6053
:102BC000E28C013AE284E28C72B10A68120635D5D1
:102BD000002FEFD017F8012BF1E700BF0027304698
:102BE000E28C2168002AA1D1086840061ED42DB3CA
:102BF000681C14D1086840062AD40868400627D407
:102C00000868400624D4086840064FF00000F1D55B
:102C10000DE000BF2068C1680068400618D4FEF7C8
:102C200063FCA0EB0900A842F4D909E000202021B0
:102C300084F8411001B0BDE8F08300BFFEF754FCFA
:102C40000320202184F8411001B0BDE8F08300BFCB
:102C50000020202184F8411001B0BDE8F08300007D
:102C600070470000FEE7000080B586B0002043F604
:102C700030010590CDE90300CDE901000090C4F2D8
:102C800002010A6842F010020A600A6802F01002AB
:102C90000092009A00900A6842F080020A600A6876
:102CA00002F080020092009A00900A6842F004024A
:102CB0000A600A6802F004020092009A00900A6812
:102CC00042F001020A60096801F0010100910099D7
:102CD00040F6FF71CDE90110039041F20000C4F20B
:102CE000020001A9FEF730FB06B080BD70B59CB0B4
:102CF00000254EF6AC10C4F201050021C2F200001E
:102D00000F2280231591CDE913111191CDE90F11F7
:102D1000CDE90D11CDE90B11CDE90911CDE907116F
:102D2000CDE90511CDE90311CDE90111C0E900514B
:102D3000C0E90212C0E904118361FFF717F8002807
:102D400018BFFEF7DDF94FF4805012904EF6AC102C
:102D5000C2F2000012A9FFF763F8002818BFFEF7BF
:102D6000CFF94EF6AC10C2F20000FFF7AFFA002820
:102D700018BFFEF7C5F94EF6AC100024C2F20000F1
:102D800010A9CDE91044FEF793FF002818BFFEF705
:102D9000B7F90820CDE90A044EF6AC10C2F20000E3
:102DA00009A900220994CDE90C44CDE90E44FFF7AE
:102DB000B1F9002818BFFEF7A3F94EF6AC144FF492
:102DC0000050C2F200040026069001A92046059694
:102DD000CDE90366CDE901660896FEF743FF0028BA
:102DE00018BFFEF78DF920681B96A842CDE9196639
:102DF0001896179602D01CB070BD00BF002043F695
:102E000030011690C4F202010A6842F001020A6021
:102E1000096801F00101169116994FF4807117911C
:102E20000221CDE918101A9001201B9005F5803081
:102E300017A9FEF789FA1CB070BD000080B54EF6E8
:102E4000F41041F20001C2F20000C4F201010023BB
:102E50004FF00C0C4FF4E13280E80E00C0E9033370
:102E6000C0E905C3C361FFF735FD002808BF80BD79
:102E7000BDE88040FEF744B980B54EF63C2041F2F3
:102E80000041C2F20000C4F2010100234FF00C0C1B
:102E90004FF4E13280E80E00C0E90333C0E905C316
:102EA000C361FFF717FD002808BF80BDBDE8804063
:102EB000FEF726B9B0B52DED088BFDF7CDFC4AF62F
:102EC0004C10C2F200009FED1D8A9FED1D9A051F58
:102ED0000024B7EE00AAB6EE00BA00BF00EE104A1A
:102EE000B8EE400A20EE080A80EE090A03F082FEDE
:102EF0003AEE400A20EE0B0A013485ED010A043552
:102F0000B4F5805FEAD140F22404C2F2000404F177
:102F10001C004FF4805104F0A1FC0021C4E904110D
:102F2000C4E90D11C4E90F11C4E9111105A0E16450
:102F3000BDEC088BBDE8B04005F022BFDB0FC940F7
:102F400000F07F454D65617375726520496E697447
:102F5000204F4B0D000000002DE9F04F81B02DED0A
:102F6000108B92B040F22408C2F2000898F80110C9
:102F700098F80200814207D0FEF7B6FA98F80110DF
:102F8000C8F8040088F80210DFE811F004001E02FF
:102F90001E00F20198F8000038B9FEF7A5FAD8F83B
:102FA0000810401AB0F57A7F08D3002088F8000096
:102FB00001200124FDF796FC88F8014012B0BDEC19
:102FC000108B01B0BDE8F08FFDF7D4FB002801F0B5
:102FD000D980FDF7C7FB4EF6842BC2F2000B9FEDA4
:102FE000E30A40F24C500BF13C010022C2F2000017
:102FF000875A83186FF31F3701EE107A5F88B8EE97
:10300000411A6FF31F3701ED0F1A30EE010A01EE7E
:10301000107A9F88B8EE411A6FF31F3701ED0E1A30
:1030200030EE010A01EE107ADF88B8EE411A6FF334
:103030001F3701ED0D1A30EE010A01EE107A1F89DB
:10304000B8EE411A6FF31F3701ED0C1A30EE010A8A
:1030500001EE107A5F89B8EE411A6FF31F3701ED68
:103060000B1A30EE010A01EE107A9F89B8EE411A70
:103070006FF31F3701ED0A1A30EE010A01EE107AE4
:10308000DF89B8EE411A6FF31F3701ED091A30EEF0
:10309000010A01EE107A1F8AB8EE411A6FF31F374A
:1030A00001ED081A30EE010A01EE107A5F8AB8EEDF
:1030B000411A6FF31F3701ED071A30EE010A01EED6
:1030C000107A9F8AB8EE411A6FF31F3701ED061A86
:1030D00030EE010A01EE107ADF8AB8EE411A6FF382
:1030E0001F3701ED051A30EE010A01EE107A1F8B31
:1030F000B8EE411A6FF31F3701ED041A30EE010AE2
:1031000001EE107A5F8BB8EE411A6FF31F3701EDB5
:10311000031A30EE010A01EE107A9F8BB8EE411AC5
:103120006FF31F37DB8B01ED021A30EE010A01EE5F
:10313000107AB8EE411A6FF31F3301ED011A30EE29
:10314000010A01EE103AB8EE411A203281ED001A60
:1031500030EE010AB2F5005F01F140017FF448AFA3
:103160009FEDAB9A002120EE090A00BF0BEB010294
:1031700092ED001A92ED012A92ED023A31EE401AD8
:1031800092ED034A82ED001A32EE401A82ED011AE6
:1031900033EE401A92ED042A82ED021A34EE401A00
:1031A00082ED031A32EE401A92ED052A82ED041ADE
:1031B00032EE401A92ED062A82ED051A32EE401ADE
:1031C00092ED072A82ED061A32EE401A92ED082A95
:1031D00082ED071A32EE401A92ED092A82ED081AA2
:1031E00032EE401A92ED0A2A82ED091A32EE401AA6
:1031F00092ED0B2A82ED0A1A32EE401A92ED0C2A59
:1032000082ED0B1A32EE401A92ED0D2A82ED0C1A65
:1032100032EE401A92ED0E2A82ED0D1A32EE401A6D
:1032200092ED0F2A403182ED0E1A32EE401AB1F5BE
:10323000804F82ED0F1A99D19FED4C0A42F64C1C3B
:1032400000220323C2F2000CB1EE001AB1EE042AF0
:1032500043F6F07EB0EE083A40F6FE76002514E024
:1032600094ED045A94ED056A34EE054A34EE064AAC
:10327000B0EE425A84EE054A1035B5F5804F03F1A1
:10328000040381ED034A00F0C980591FB2EB113FDE
:10329000B0EE404A4FF000010BEB050404BF14ED03
:1032A000024A01211F1FB2EB173F04D114ED015A4E
:1032B000013134EE054A94ED005A94ED016A94ED23
:1032C000027A34EE054A033134EE064A05EE101A4E
:1032D00034EE074AB8EE455A84EE054A0CEB050178
:1032E000B0EE405AB2EB173F81ED004AB0EE414AD2
:1032F00004BF14ED015AB0EE424A94ED006A94ED19
:10330000017AD4ED020A35EE065AD4ED031A35EEF1
:10331000075A35EE205A35EE215A85EE044A754596
:1033200081ED014A36EE074A34EE204A34EE214A56
:1033300002D1B0EE415A05E094ED045A34EE054A4C
:10334000B0EE425A84EE054A94ED025A94ED036AB7
:10335000B34281ED024A94ED014A34EE054A34EE5F
:10336000064A7FF67DAFB0EE435A83E700000000C7
:1033700098F803000130C1B2052988F803001DD375
:1033800008F1100531CDFDF7EDF8064620460F4651
:10339000FDF7E8F841EC180B2846FDF7E3F841EC9F
:1033A000100B0FF6306032463B468DED008B8DEDF5
:1033B000020B04F0F7FD002088F80300FEF794F8F4
:1033C000C8F8080000F0FDBEFDF7D4F9002800F0B1
:1033D000E986FDF7C7F948F28040C0F21E0004F00C
:1033E00003FB9FED0C1A0120B4EE410A9FED0A1A6F
:1033F000F1EE10FAC8BF0220B4EE410AF1EE10FA65
:10340000B8BF0020FDF76EFA022000F0DBBE00BF5F
:103410000000803900004843000048429CED000A4B
:10342000002243F6FC73B0EE401A00BF0CEB02071B
:1034300097ED012A97ED023AB4EE412AF1EE10FA27
:10344000B4EE402A97ED034A97ED045AC8BFB0EE98
:10345000421AF1EE10FAB4EE413AB8BFB0EE420AA9
:10346000F1EE10FAB4EE403AC8BFB0EE431AF1EEF6
:1034700010FAB4EE414AB8BFB0EE430AF1EE10FACA
:10348000B4EE404AC8BFB0EE441AF1EE10FAB4EE02
:10349000415AB8BFB0EE440AF1EE10FAC8BFB0EE20
:1034A000451A97ED052AB4EE405AF1EE10FAB4EE43
:1034B000412AB8BFB0EE450AF1EE10FAC8BFB0EE2F
:1034C000421A97ED063AB4EE402AF1EE10FAB4EE45
:1034D000413AB8BFB0EE420AF1EE10FAC8BFB0EE02
:1034E000431A97ED072AB4EE403AF1EE10FAB4EE23
:1034F000412AB8BFB0EE430AF1EE10FAC8BFB0EEF1
:10350000421A97ED083AB4EE402AF1EE10FAB4EE02
:10351000413AB8BFB0EE420AF1EE10FAC8BFB0EEC1
:10352000431A97ED092AB4EE403AF1EE10FAB4EEE0
:10353000412AB8BFB0EE430AF1EE10FAC8BFB0EEB0
:10354000421A97ED0A3AB4EE402AF1EE10FAB4EEC0
:10355000413AB8BFB0EE420AF1EE10FAC8BFB0EE81
:10356000431A97ED0B2AB4EE403AF1EE10FAB4EE9E
:10357000412AB8BFB0EE430AF1EE10FAC8BFB0EE70
:10358000421A97ED0C3AB4EE402AF1EE10FAB4EE7E
:10359000413AB8BFB0EE420AF1EE10FAC8BFB0EE41
:1035A000431A97ED0D2AB4EE403AF1EE10FAB4EE5C
:1035B000412AB8BFB0EE430AF1EE10FAC8BFB0EE30
:1035C000421A97ED0E3AB4EE402AF1EE10FAB4EE3C
:1035D000413AB8BFB0EE420AF1EE10FAC8BFB0EE01
:1035E000431A97ED0F2AB4EE403AF1EE10FAB4EE1A
:1035F000412AB8BFB0EE430AF1EE10FAB4EE402A09
:10360000C8BFB0EE421AF1EE10FA02F13C02B8BFA8
:10361000B0EE420A9A427FF409AF31EE400A30EE32
:10362000000A88ED050A1FEDAF0A0021435A42182F
:103630006FF31F3301EE103A5388B8EE411A6FF35F
:103640001F3330EE010A01EE103A9388B8EE411AAA
:103650006FF31F3330EE010A01EE103AD388B8EE53
:10366000411A6FF31F3330EE010A01EE103A13894D
:10367000B8EE411A6FF31F3330EE010A01EE103A33
:103680005389B8EE411A6FF31F3330EE010A01EE91
:10369000103A9389B8EE411A6FF31F3330EE010AE6
:1036A00001EE103AD389B8EE411A6FF31F3330EEB2
:1036B000010A01EE103A138AB8EE411A6FF31F3374
:1036C00030EE010A01EE103A538AB8EE411A6FF358
:1036D0001F3330EE010A01EE103A938AB8EE411A18
:1036E0006FF31F3330EE010A01EE103AD38AB8EEC1
:1036F000411A6FF31F3330EE010A01EE103A138BBB
:10370000B8EE411A6FF31F3330EE010A01EE103AA2
:10371000538BB8EE411A6FF31F3330EE010A01EEFE
:10372000103A938BB8EE411A6FF31F33D28B30EE01
:10373000010A01EE103AB8EE411A6FF31F3230EE73
:10374000010A01EE102AB8EE411A2031B1F5005FEE
:1037500030EE010A7FF46AAF1FEDFC1A20EE090A71
:10376000002100BF435A42186FF31F3302EE103A94
:10377000B8EE422A538832EE402A22EE022A6FF334
:103780001F3332EE011A02EE103AB8EE422A938845
:1037900032EE402A22EE022A6FF31F3332EE011A74
:1037A00002EE103AB8EE422AD38832EE402A22EED8
:1037B000022A6FF31F3332EE011A02EE103AB8EE0E
:1037C000422A138932EE402A22EE022A6FF31F3377
:1037D00032EE011A02EE103AB8EE422A538932EE66
:1037E000402A22EE022A6FF31F3332EE011A02EE54
:1037F000103AB8EE422A938932EE402A22EE022A8B
:103800006FF31F3332EE011A02EE103AB8EE422A7D
:10381000D38932EE402A22EE022A6FF31F3332EEB2
:10382000011A02EE103AB8EE422A138A32EE402A0A
:1038300022EE022A6FF31F3332EE011A02EE103A23
:10384000B8EE422A538A32EE402A22EE022A6FF361
:103850001F3332EE011A02EE103AB8EE422A938A72
:1038600032EE402A22EE022A6FF31F3332EE011AA3
:1038700002EE103AB8EE422AD38A32EE402A22EE05
:10388000022A6FF31F3332EE011A02EE103AB8EE3D
:10389000422A138B32EE402A22EE022A6FF31F33A4
:1038A00032EE011A02EE103AB8EE422A538B32EE93
:1038B000402A22EE022A6FF31F3332EE011A02EE83
:1038C000103AB8EE422A938B32EE402A22EE022AB8
:1038D0006FF31F3332EE011A02EE103AB8EE422AAD
:1038E000D28B32EE402A22EE022A6FF31F3232EEE2
:1038F000011A02EE102AB8EE422A32EE402A22EED7
:10390000022A2031B1F5005F32EE011A7FF42AAFAE
:1039100021EE090AB1EEC00A2C20C4F2010030EEFB
:10392000000A88ED060A01684CF69010C0F2960075
:103930004F2984BF48F28040C0F21E00490918296F
:1039400084BF40F64050C0F20300069004F04CF8EB
:1039500088ED040AD8F80C009FEDC40A42F68427CB
:103960000021C2F2010741F6FC7200BF7B1893ED03
:10397000011A93ED022A93ED033A30EE010A93ED1A
:10398000044A30EE020A93ED055A30EE030A93ED35
:10399000066A30EE040A93ED077A30EE050AD3ED9D
:1039A000080A30EE060A30EE070A93ED091A30EEE7
:1039B000200A93ED0A2A93ED0B3A30EE010A93EDBB
:1039C0000C4A30EE020A93ED0D5A30EE030A93EDE5
:1039D0000E6A30EE040A93ED0F7A30EE050AD3ED4D
:1039E000100A30EE060A30EE070A93ED111A30EE97
:1039F000200A93ED122A93ED133A30EE010A93ED6B
:103A0000144A30EE020A93ED155A30EE030A93ED94
:103A1000166A30EE040A93ED177A30EE050A30EE9E
:103A2000060A5C31914230EE070A9FD19FEDD11A10
:103A3000083780EE010A9FED8D2A9FEDCF8A002185
:103A400040F2FC733A4630EE001A00BF12ED013A24
:103A500092ED004A92ED015AB4EE413AB0EE486A56
:103A6000F1EE10FAD8BF0131D8BFB0EE436AB4EE20
:103A7000414AB0EE483A32EE062AF1EE10FAD8BFCB
:103A80000131D8BFB0EE443AB4EE415A32EE032AC7
:103A9000F1EE10FAB0EE483AD8BF0131D8BFB0EE1F
:103AA000453A32EE032A8BB192ED023AB0EE484A23
:103AB000B4EE413AF1EE10FAD8BF0131D8BFB0EE02
:103AC000434A32EE042A1032043BBFE701EE101ADB
:103AD000B8EE411A82EE011A02EE100A9FED63AAB7
:103AE000B8EE422A0120002517ED013A97ED004A71
:103AF00097ED015AB4EE4A3AF1EE10FAC4BF05460A
:103B0000B0EE43AAB4EE4A4AF1EE10FAC4BF451C27
:103B1000B0EE44AAB4EE4A5AF1EE10FAC4BF851CC6
:103B2000B0EE45AA0330B0F5006F0DD097ED023A24
:103B30001037B4EE4A3AF1EE10FAC4BF0546B0EEC3
:103B400043AA0130D0E700BFF1EE04CA1AEE100A12
:103B5000642988BFB0EE410A22EE09EA20EE2CCAA1
:103B6000FCF700FDB2EE00DA2AEE0D0A20EE090A9B
:103B700030EE000A064610EE100A0F46FCF7F2FC83
:103B800041EC100B0FF63C70294632463B468DED5A
:103B9000000B04F007FA42F6842042F24C57C2F2BE
:103BA00001004FF000090521B6EE00AAC2F200079D
:103BB00040F2FD72002600BF00EB810313ED011AF5
:103BC00093ED000AB4EE410AF1EE10FA3ADD93EDFE
:103BD000013AB4EE430AF1EE10FA33DDB4EE4C0ACA
:103BE000F1EE10FA2EDD30EE004A31EE444A34EEAA
:103BF000034A02EE101AB5EE404AF1EE10FAB8EEA2
:103C0000422A12D031EE431A21EE0A1A81EE041A2A
:103C1000B0EEC13AB4EE4A3AB0EE483AF1EE10FADC
:103C2000B8BFB0EE413A33EE022A09EB490307EB85
:103C300083032EEE021A99600136043183ED000AE7
:103C400083ED011A91425FFA86F904D8B9F1400F69
:103C500001F10101B0D3B9F1020F0596C0F0EE8079
:103C6000A9F102004FF0000E079005E000000000EF
:103C70000798604500F0E280F4466FEA0E0142F2D8
:103C80004C5301EB09020EF1010E0CEB4C06C2F293
:103C9000000303EB860612F0030572465AD00EEBC2
:103CA0004E0203EB820292ED000A96ED001AB4EE8A
:103CB000410AF1EE10FA11DDD2F808B0D6E9004061
:103CC000B168D2E900A8C6F808B04EF6842BC2F25B
:103CD000000BC6E900A8C2E900409160012D0CF17B
:103CE000020237D002EB420003EB800292ED000AA1
:103CF00096ED001AB4EE410AF1EE10FA0BDD96E8EB
:103D0000000D92E8130082E8000D4EF6842BC2F2FB
:103D1000000B86E81300022D0CF103021AD002EB0F
:103D2000420003EB800292ED000A96ED001AB4EE19
:103D3000410AF1EE10FA0BDDD6E9008AB468D2E947
:103D400000509168C6E90050B160C2E9008A9460F1
:103D50000CF104020798A0EB0C00032888D342F270
:103D60004C5102EB4200C2F20001A9EB020401EB4C
:103D7000800508E000E0FF4400000080043C05F1FD
:103D800030053FF475AF95ED000A96ED001AB4EEDC
:103D9000410AF1EE10FA0BDDD6E90081B268D5E9EF
:103DA0000073A868C6E90073B060C5E90081AA6025
:103DB00095ED030A96ED001AB4EE410AF1EE10FA01
:103DC0000DDD05F10C00D6E9008AB368D0E9007179
:103DD0008268C6E90071B260C0E9008A836095ED2F
:103DE000060A96ED001AB4EE410AF1EE10FA0DDD66
:103DF00005F11800D6E9008AB368D0E9007182683D
:103E0000C6E90071B260C0E9008A836095ED090AD5
:103E100096ED001AB4EE410AF1EE10FAAEDD05F1AE
:103E20002400D6E9008AB368D0E900718268C6E947
:103E30000071B260C0E9008A83609FE740F2240706
:103E40000025C2F200074C46C7E90D55C7E90F55DA
:103E5000C7E91155B9F1030F28BF0324059842F2B1
:103E60004C580006C2F20008FD6400F0538198ED42
:103E7000010AD8F8086080EE0E1A02EE106AB8EE59
:103E8000C22AFFEE008AFEEE009ADFEDDEAA31EED6
:103E9000422A32EE281AB4EE4A2AF1EE10FAC8BFCE
:103EA000B0EE412AB7EE001AB4EE692A32EE013ABA
:103EB000F1EE10FAB8BFB0EE432AB0EEC2FAB4EE9B
:103EC0006AFAF1EE10FA13DB9FEDCF0A2FEE008AAB
:103ED000B0EE480A04F0F6F880EE080A2FEE0F1A4A
:103EE000B7EE002A32EE411A80EE011A98ED010A6F
:103EF0009FEDC6FA98ED002AB4EE4F1AF1EE10FAD3
:103F0000B8BFB0EE4F1A82EE011A40F22407C2F297
:103F1000000710EE100A87ED0E0A21EE0D1A21EEB1
:103F2000091A31EE018A87ED118AFCF71BFB41EC7F
:103F30001B0B18EE100AFCF715FB41EC100B4CF6AE
:103F4000CC30C0F60000002132468DED00BB8DED77
:103F5000020B04F027F8B9F1010F00F0DB8098EDB7
:103F6000040AD8F8146080EE0E1A02EE106AB8EE59
:103F7000C22A31EE422AB4EE4A2A32EE281AF1EE73
:103F800010FAC8BFB0EE412AB4EE692AB7EE001AA3
:103F9000F1EE10FA32EE013AB8BFB0EE432AF0EE7D
:103FA000C2BAF4EE6ABAF1EE10FA13DB9FED960A8C
:103FB0002BEE808AB0EE480A04F084F880EE080AFE
:103FC0002BEEAB1AB7EE002A32EE411A80EE011A40
:103FD00098ED040AB4EE4F1A98ED032AF1EE10FAA8
:103FE000B8BFB0EE4F1A82EE011A40F22407C2F2B7
:103FF000000710EE100A87ED0F0A21EE0D1A21EED0
:10400000091A31EE018A87ED128AFCF7ABFA41EC0E
:104010001B0B18EE100AFCF7A5FA41EC100B4CF63E
:10402000CC30C0F60000012132468DED00BB8DED95
:10403000020B03F0B7FFB9F1020F6BD098ED070A3E
:10404000D8F8206080EE0E1A02EE106AB8EEC22A8E
:1040500031EE422A32EE281AB4EE4A2AF1EE10FA74
:10406000C8BFB0EE412AB7EE001AB4EE692A32EEAC
:10407000013AF1EE10FAB8BFB0EE432AB0EEC2EA50
:10408000B4EE6AEAF1EE10FA13DB9FED5F0A2EEE52
:10409000008AB0EE480A04F015F880EE080A2EEE09
:1040A0000E1AB7EE002A32EE411A80EE011A98ED90
:1040B000070AB4EE4F1A98ED062AF1EE10FAB8BFCF
:1040C000B0EE4F1A82EE011A40F22407C2F2000746
:1040D00010EE100A87ED100A21EE0D1A21EE091AD2
:1040E00031EE018A87ED138AFCF73CFA41EC190B9B
:1040F00018EE100AFCF736FA41EC100B4CF6CC30F7
:10410000C0F60000022132468DED009B8DED020BC2
:1041100003F048FF1CEE100A87F83440FCF722FA3F
:1041200002460B460FF67C502146CDF8009003F076
:1041300039FF97ED040A9FEDEA1A97F834E0D7E9C2
:10414000050120EE010ABEF1000F0B951195CDE996
:104150000F55CDE90D550C95089009918DED0A0A82
:104160008DF82CE054D00DF12008BEF1040F0EF0B4
:104170000300079080F0BC8140F2240C0022C2F2C0
:10418000000CD6E1FDF7B0F9D8F80410401AB0F5EC
:104190007A7F7EF613AF4CF61740C0F6000004F0AD
:1041A000EFFD08E0FDF7A0F9D8F80410401AB0F5CB
:1041B0007A7F7EF603AFFCF7E3FAFDF795F9C8F8CE
:1041C0000400002088F8010012B0BDEC108B01B093
:1041D000BDE8F08F467265713A20252E3366206B5C
:1041E000487A20205670703A20252E3066206D5671
:1041F000202056726D733A20252E3066206D560DA4
:104200000A0000006F12833ADB0F49409A99993EE9
:1042100097ED0E1AB7EE000AB4EE401AF1EE10FA5E
:10422000C0F2BD8197ED111AB4EE401AF1EE10FA0A
:10423000C0F2B5819FEDAB8AB0EE48CAFCF7AAFB8D
:104240004FF00309002808BF4FF0010900EE109A53
:104250009FEDA51AB8EE400A81EE009A40F22400C4
:10426000C2F2000090ED110AB4EE4C8AF1EE10FAA1
:1042700020EE0ABA80F21E83B7EE000AB4EE408A3E
:10428000F1EE10FA80F216839FED98AA0BF12C063E
:10429000B1EE4B8A0B2740F2632500BFA7F10B005C
:1042A00080B200EE100AB8EE400A80EE090A20EE55
:1042B0000A0A03F007FFA7F10A0080B201EE100A14
:1042C000B8EE411A81EE091AB5EE400AB0EE480A7E
:1042D000F1EE10FAA8BFB0EE4B0A06ED0B0A21EE84
:1042E0000A0A03F0EFFEA7F1090080B201EE100AFE
:1042F000B8EE411A81EE091AB5EE400AB0EE480A4E
:10430000F1EE10FAA8BFB0EE4B0A06ED0A0A21EE54
:104310000A0A03F0D7FEA7F1080080B201EE100AE6
:10432000B8EE411A81EE091AB5EE400AB0EE480A1D
:10433000F1EE10FAA8BFB0EE4B0A06ED090A21EE25
:104340000A0A03F0BFFEF81F80B201EE100AB8EEB1
:10435000411A81EE091AB5EE400AB0EE480AF1EEB4
:1043600010FAA8BFB0EE4B0A06ED080A21EE0A0AC1
:1043700003F0A8FEB81F80B201EE100AB8EE411A91
:1043800081EE091AB5EE400AB0EE480AF1EE10FAD5
:10439000A8BFB0EE4B0A06ED070A21EE0A0A03F0A9
:1043A00091FE781F80B201EE100AB8EE411A81EE3C
:1043B000091AB5EE400AB0EE480AF1EE10FAA8BFAD
:1043C000B0EE4B0A06ED060A21EE0A0A03F07AFE69
:1043D000381F80B201EE100AB8EE411A81EE091AB8
:1043E000B5EE400AB0EE480AF1EE10FAA8BFB0EE02
:1043F0004B0A06ED050A21EE0A0A03F063FEF81ED9
:1044000080B201EE100AB8EE411A81EE091AB5EE3B
:10441000400AB0EE480AF1EE10FAA8BFB0EE4B0A1F
:1044200006ED040A21EE0A0A03F04CFEB81E80B223
:1044300001EE100AB8EE411A81EE091AB5EE400AF3
:10444000B0EE480AF1EE10FAA8BFB0EE4B0A06ED46
:10445000030A21EE0A0A03F035FE781E80B201EE4F
:10446000100AB8EE411A81EE091AB5EE400AB0EE14
:10447000480AF1EE10FAA8BFB0EE4B0A06ED020AA8
:1044800021EE0A0A03F01EFEB8B201EE100AB8EEE1
:10449000411A81EE091AB5EE400AB0EE480AF1EE73
:1044A00010FAA8BFB0EE4B0A06ED010A21EE0A0A87
:1044B00003F008FEB5EE400AF1EE10FAB0EE480A3D
:1044C00007F10C07A8BFB0EE4B0A86ED000AAF4219
:1044D00006F130067FF4E2AE012600F096BC00BF84
:1044E00000007A440000000000001644DB0FC940C1
:1044F0006FF00C0240F2240C02EA8E090026002222
:10450000C2F2000C0CEB0605D5E90E1005F1400BCC
:1045100008EB06049BE8880C2D6D1036C4E90410E6
:1045200004F11800B14502F1040280E8880CA5628C
:10453000E8D10799674609B307EB8206B56B766C3D
:1045400008F1100008F11C03012940F8225043F83B
:10455000226013D0561C07EB8605AC6B6D6C0229EC
:1045600040F8264043F8265008D0911C07EB810202
:10457000966B526C40F8216043F821204EF6842B54
:10458000BEF1010FC2F2000B09D097ED0E0AB7EE93
:10459000001AB4EE410AF1EE10FA80F21B81FCF72A
:1045A000F9F94FF00309002808BF4FF0010900EEA8
:1045B000109A1FED331AB8EE400A81EE008A97ED8B
:1045C000110AABF13C0720EE0A9A1FED38AA0E251E
:1045D00040F26626A5F10E0080B200EE100AB8EE99
:1045E000400A80EE080A20EE0A0A03F06BFDA5F1EE
:1045F0000D0080B201EE100AB8EE411A81EE081AE1
:1046000029EE000A87ED0F0A07F13C0421EE0A0AA1
:1046100003F058FDA5F10C0080B201EE100AB8EECF
:10462000411A81EE081A29EE000A87ED100A21EEE0
:104630000A0A03F047FDA5F10B0080B201EE100A53
:10464000B8EE411A81EE081A29EE000A87ED110A28
:1046500021EE0A0A03F036FDA5F10A0080B201EE50
:10466000100AB8EE411A81EE081A29EE000A87ED09
:10467000120A21EE0A0A03F025FDA5F1090080B215
:1046800001EE100AB8EE411A81EE081A29EE000A6E
:1046900087ED130A21EE0A0A03F014FDA5F10800C4
:1046A00080B201EE100AB8EE411A81EE081A29EE26
:1046B000000A87ED140A21EE0A0A03F003FDE81F41
:1046C00080B201EE100AB8EE411A81EE081A29EE06
:1046D000000A87ED150A21EE0A0A03F0F3FCA81F71
:1046E00080B201EE100AB8EE411A81EE081A29EEE6
:1046F000000A87ED160A21EE0A0A03F0E3FC681FA0
:1047000080B201EE100AB8EE411A81EE081A29EEC5
:10471000000A87ED170A21EE0A0A03F0D3FC281FCE
:1047200080B201EE100AB8EE411A81EE081A29EEA5
:10473000000A87ED180A21EE0A0A03F0C3FCE81EFE
:1047400080B201EE100AB8EE411A81EE081A29EE85
:10475000000A87ED190A21EE0A0A03F0B3FCA81E2D
:1047600080B201EE100AB8EE411A81EE081A29EE65
:10477000000A87ED1A0A21EE0A0A03F0A3FC681E5C
:1047800080B201EE100AB8EE411A81EE081A29EE45
:10479000000A87ED1B0A21EE0A0A03F093FCA8B277
:1047A00001EE100AB8EE411A81EE081A29EE000A4D
:1047B00087ED1C0A21EE0A0A03F084FC29EE000AA8
:1047C0000F3587ED1D0AB54227467FF403AF00265B
:1047D0001BE300BFBEF1000F00F0AC8497ED0F2A81
:1047E000B8EE083A82EE002A32EE032A9FEDD43A60
:1047F000B0EEC22AB4EE432AF1EE10FA00F3DA81E9
:10480000BEF1030F11D397ED102A82EE000AB9EE24
:10481000042A30EE020AB0EEC00AB5EE002AB4EE69
:10482000420AF1EE10FA00F3C58197ED110AB4EED9
:10483000410AF1EE10FAFFF6B2AEB0EE081A80EEC1
:10484000013A97ED122A9FEDDA1ABEF1020F32EE0D
:10485000434AB0EEC44A33EE013A84EE038A40F292
:104860007384B2EE024A80EE044AB3EE095A80EE37
:104870002C3A80EE050A97ED135A32EE442AB0EE38
:10488000C22A34EE014A35EE436A82EE042A35EE3E
:10489000404AB0EEC66A33EE013AB0EEC44A30EE9A
:1048A000010A86EE033A84EE000A38EE038A32EEFD
:1048B00000CAC3E4B4EE48CAF1EE10FA80F2908167
:1048C000B7EE000AB4EE40CAF1EE10FA80F2888129
:1048D0000BF11C060727B5EE00AAB1EE00CA40F2A4
:1048E0005F2BB6EE08DAB9EE00EAB0EE00FA0BE0A4
:1048F00020EE0C0A2BEE000A083786ED000A5F4511
:1049000006F1200600F07C82F81F80B200EE100A4B
:10491000B8EE400A80EE098AB0EE480A03F09AFB2E
:1049200038EE400AB4EE4A0AF1EE10FA02DA20EE4E
:104930000C0A0DE0B4EE4D0AF1EE10FA04DA20EEA6
:104940000E0A30EE0F0A03E020EE0C0A30EE0E0ADB
:10495000B81F80B201EE100AB8EE411A81EE098A42
:104960002BEE000A06ED070AB0EE480A03F072FBD0
:1049700038EE400AB4EE4A0AF1EE10FA02DA20EEFE
:104980000C0A0DE0B4EE4D0AF1EE10FA04DA20EE56
:104990000E0A30EE0F0A03E020EE0C0A30EE0E0A8B
:1049A000781F80B201EE100AB8EE411A81EE098A32
:1049B0002BEE000A06ED060AB0EE480A03F04AFBA9
:1049C00038EE400AB4EE4A0AF1EE10FA02DA20EEAE
:1049D0000C0A0DE0B4EE4D0AF1EE10FA04DA20EE06
:1049E0000E0A30EE0F0A03E020EE0C0A30EE0E0A3B
:1049F000381F80B201EE100AB8EE411A81EE098A22
:104A00002BEE000A06ED050AB0EE480A03F022FB81
:104A100038EE400AB4EE4A0AF1EE10FA02DA20EE5D
:104A20000C0A0DE0B4EE4D0AF1EE10FA04DA20EEB5
:104A30000E0A30EE0F0A03E020EE0C0A30EE0E0AEA
:104A4000F81E80B201EE100AB8EE411A81EE098A12
:104A50002BEE000A06ED040AB0EE480A03F0FAFA5B
:104A600038EE400AB4EE4A0AF1EE10FA02DA20EE0D
:104A70000C0A0DE0B4EE4D0AF1EE10FA04DA20EE65
:104A80000E0A30EE0F0A03E020EE0C0A30EE0E0A9A
:104A9000B81E80B201EE100AB8EE411A81EE098A02
:104AA0002BEE000A06ED030AB0EE480A03F0D2FA34
:104AB00038EE400AB4EE4A0AF1EE10FA18DA20EEA7
:104AC0000C0A23E0464654206D61783A2062696EF4
:104AD0003D256C75206D61673D252E3066202D3E8D
:104AE000205670703D252E30666D560D0A00000070
:104AF000B4EE4D0AF1EE10FA04DA20EE0E0A30EEB2
:104B00000F0A03E020EE0C0A30EE0E0A781E80B287
:104B100001EE100AB8EE411A81EE098A2BEE000A66
:104B200006ED020AB0EE480A03F094FA38EE400AA5
:104B3000B4EE4A0AF1EE10FA04DA20EE0C0A0FE0A5
:104B40009A99193EB4EE4D0AF1EE10FA04DA20EE0D
:104B50000E0A30EE0F0A03E020EE0C0A30EE0E0AC9
:104B6000B8B201EE100AB8EE411A81EE098A2BEEB6
:104B7000000A06ED010AB0EE480A03F06BFA38EEBF
:104B8000400AB4EE4A0AF1EE10FAFFF6B1AEB4EE06
:104B90004D0AF1EE10FA05DA20EE0E0A30EE0F0A99
:104BA000A8E600BF20EE0C0A30EE0E0AA2E600BF17
:104BB000CDCCCC3DFBF7EEFE4FF00309002808BF3B
:104BC0004FF0010900EE109A9FEDBE1AB8EE400AB0
:104BD00081EE009A97ED110A20EE0ABA04E000BFB8
:104BE00040F22407C2F2000797ED0E8A97F83400CE
:104BF0009FEDB5CA9FEDB5DA002607F1500B13E023
:104C00000020B0EE4CEA8EEE0B0A4EF68421C2F282
:104C10000001023601EB8801B6F5167F2BEE000A83
:104C200081ED000A00F0EA80002867D0B0B200EE03
:104C3000100AB8EE400A80EE090A40F22407032564
:104C40005C46B0EE4CEAC2F2000720EE0DFA00BF5F
:104C500014ED060A14ED031A2FEE000A80EE080A7E
:104C600061EE0A8A03F02EFA97F8340020EE280A43
:104C7000A91E814230EE0EEA43D214ED050A14ED6E
:104C8000021A2FEE000A80EE080A61EE0A8A03F08B
:104C900019FA97F8340020EE280A691E814230EE96
:104CA0000EEA2ED214ED040A14ED011A2FEE000ABA
:104CB00080EE080A61EE0A8A03F004FA97F83400DD
:104CC00020EE280A854230EE0EEA1AD214ED030ACD
:104CD00094ED001A2FEE000A80EE080A61EE0A8AAF
:104CE00003F0F0F997F8340020EE280A691C30EE42
:104CF0000EEA043510348142AAD302E00020B0EE5F
:104D00004CEA8EEE0B0A4EF68421C2F2000101EB52
:104D10008601002846F001082BEE000A81ED000A0A
:104D20003FF46EAF1FFA88F000EE100AB8EE400AAA
:104D300080EE090A40F2240403275D46B0EE4CEAF7
:104D4000C2F2000420EE0DFA15ED060A15ED031A65
:104D50002FEE000A80EE080A61EE0A8A03F0B2F92B
:104D600094F8340020EE280AB91E814230EE0EEA93
:104D7000BFF449AF15ED050A15ED021A2FEE000A32
:104D800080EE080A61EE0A8A03F09CF994F8340078
:104D900020EE280A791E814230EE0EEABFF433AFCE
:104DA00015ED040A15ED011A2FEE000A80EE080A2F
:104DB00061EE0A8A03F086F994F8340020EE280A9E
:104DC000874230EE0EEABFF41EAF15ED030A95EDF3
:104DD000001A2FEE000A80EE080A61EE0A8A03F03C
:104DE00071F994F8340020EE280A791C30EE0EEAAE
:104DF000043710358142A7D305E700BF032600E042
:104E000002264EF6842BC2F2000B9BED001A002006
:104E1000B0EE410A0BEB000191ED012A91ED023A4F
:104E2000B4EE412AF1EE10FAB4EE402A91ED034AB5
:104E3000B8BFB0EE421AF1EE10FAB4EE413AC8BF74
:104E4000B0EE420AF1EE10FAB4EE403AB8BFB0EE5E
:104E5000431AF1EE10FAB4EE414AC8BFB0EE430A6D
:104E6000F1EE10FAB4EE404AB8BFB0EE441AF1EEDB
:104E700010FAC8BFB0EE440AB0F5156F28D091ED16
:104E8000042A1030B4EE412AF1EE10FAB4EE402AB2
:104E9000B8BFB0EE421AF1EE10FAC8BFB0EE420A47
:104EA000B8E700BF7065616B733A202564202874F1
:104EB00068723D252E30662063616E643D2564294D
:104EC0000D0A00000000164400000000DB0FC9407E
:104ED00030EE410AB7EE002A9FEDA23AB4EE420A44
:104EE000F1EE10FAB8BFB0EE420A20EE032A40F20B
:104EF0009C0032EE023A32EE411AC2F200009FEDFF
:104F00009A2A33EE000A163000214FF4E67200BFF1
:104F10000BEB010393ED003A93ED014A31EE033AB6
:104F200083EE003A31EE044A84EE004A93ED025AD1
:104F300093ED036A31EE055A85EE005A303123EEC7
:104F4000023ABDEEC33A13EE107A24EE023AB7F5F8
:104F5000E67F28BF1746BDEEC33A31EE064A20F879
:104F6000167C84EE004A13EE107AB7F5E67F28BF70
:104F7000174625EE023A93ED045ABDEEC33A31EEE0
:104F8000055A85EE005A20F8147C13EE107AB7F516
:104F9000E67F28BF174620F8127C24EE023A93EDF4
:104FA000054ABDEEC33A31EE044A84EE004A13EEE0
:104FB000107AB7F5E67F28BF174625EE023A93ED43
:104FC000065ABDEEC33A31EE055A85EE005A20F876
:104FD000107C13EE107AB7F5E67F28BF174620F84D
:104FE0000E7C24EE023A93ED074ABDEEC33A31EE51
:104FF000044A84EE004A13EE107AB7F5E67F28BF24
:10500000174625EE023A93ED085ABDEEC33A31EE4B
:10501000055A85EE005A20F80C7C13EE107AB7F58D
:10502000E67F28BF174620F80A7C24EE023ABDEE40
:10503000C33A13EE107A93ED093AB7F5E67F28BF2D
:10504000174631EE033A83EE003A25EE024A93ED1D
:105050000A5ABDEEC44A20F8087C31EE055A14EE17
:10506000107A93ED0B4A85EE005A31EE044A84EE35
:10507000004AB7F5E67F28BF174620F8067C23EEE6
:10508000023ABDEEC33A13EE103AB3F5E67F28BFFD
:10509000134620F8043C25EE023ABDEEC33A13EE67
:1050A000103A24EE023AB3F5E67F28BF1346BDEE70
:1050B000C33A20F8023C13EE103AB3F5E67F28BF5E
:1050C0001346B1F5166F20F8183B7FF421AF40F27C
:1050D0009C00C2F200004FF4167100F0F3FA4CF697
:1050E000F930C0F6000031464A464FF4167302F01C
:1050F00059FF4EF68421069B42F684264FF4006742
:10510000C2F2000108A84FF41672C2F20106CDE9FE
:105110000067FBF789FC15A003F032FE40F2240182
:105120000320C2F20001487012B0BDEC108B01B038
:10513000BDE8F08F97ED110AB4EE410AF1EE10FAD6
:10514000BFF678A8FFF72BBAB2EE023A80EE030A58
:1051500032EE402AB0EEC22A30EE010A82EE00CAD8
:10516000FFF76CB8CDCCCC3D0000E6435375626DC3
:10517000697420646F6E650D0000000040F2240029
:10518000C2F200000121017070470000FEE700003C
:10519000FEE700007047000070470000FCF7AAB966
:1051A00070B592B006AC20463021FBF741F80025DF
:1051B00043F640000595CDE90355CDE9015500952D
:1051C000C4F202000168022641F0805101600068CB
:1051D00000F080500090009847F200000095C4F263
:1051E0000000016841F480410160006800F48040E3
:1051F00000900098012006904FF4803007904FF403
:1052000080000D9019200E904FF4A870CDE90F0684
:105210000420119020460C96FCF734FB10B172B6B6
:10522000FEE700BF0F20CDE901064FF4A050049027
:105230004FF48050059001A805210395FCF712FA60
:1052400010B172B6FEE700BF12B070BD4EF68850C6
:10525000CEF20000016841F4700101607047000067
:105260004EF6AC10C2F20000FCF7ACBE4EF6AC102D
:10527000C2F20000FCF7A6BEB0B540F6FF3E0568DE
:10528000C4F2000E40F2004C7045C4F2010C25DC63
:10529000B0F1804F2FD040F20043C4F20003984297
:1052A00029D040F60003C4F20003984223D041F60F
:1052B000FF73C4F20003984228DC70453ADCB0F179
:1052C000804F5BD040F20043C4F20003984255D0B7
:1052D00040F60003C4F200034EE000BF40F6004376
:1052E000C4F20003984206D0604504D00023C4F203
:1052F00001039842DBD14B6825F0700243EA0205B6
:1053000041F6FF73C4F200039842D6DD43F6FF7303
:10531000C4F2010398421FDC42F20003C4F200030E
:1053200098422BD00023C4F20103984226D0604556
:1053300024D028E040F60043C4F2000398421DD078
:1053400041F60003C4F20003984217D041F600432F
:10535000C4F2000310E000BF44F20003C4F20103F2
:1053600098420BD044F60003C4F20103984205D0E2
:1053700044F20043C4F20103984204D1CB6825F4FF
:10538000407243EA02050A688C684B69C46240F4C3
:1053900080648262644504BF09690163026825F084
:1053A000800142F00402194302600122426101605F
:1053B000B0BD000070B582B0034642F64C001F2617
:1053C0000029C2F2000015A24FF4807108BF48F214
:1053D0001046009602F0F6FD44F68426C2F201065D
:1053E0003468CCB142F64C05C2F200052846FAF703
:1053F0002AFF82B2204629466423FDF767FB306806
:1054000050B148F6E251C0F600010322642302B015
:10541000BDE87040FDF75ABB02B070BD25732E6227
:10542000636F3D256400000070B542F64C004CF6F9
:10543000D4424CF6DD43C2F20000C0F60002C0F6D2
:1054400000034FF4807102F0BDFD44F68426C2F2E1
:1054500001063468002C08BF70BD42F64C05C2F24C
:1054600000052846FAF7EFFE82B22046294664235B
:10547000FDF72CFB306848B148F6E251C0F6000158
:1054800003226423BDE87040FDF720BB70BD00001F
:105490002DE9F04F81B02DED028B86B000280591EB
:1054A00000F0EA8005460598002800F0E580101F0E
:1054B000144610F1030FC0F0DF8042F64C004CF6AA
:1054C000D4424CF6DD43C2F20000C0F60002C0F642
:1054D00000034FF4807102F075FD44F68420C2F29F
:1054E00001000768D7B142F64C06C2F2000630460A
:1054F000FAF7A9FE82B2384631466423FDF7E6FA90
:1055000044F68420C2F20100006838B148F6E25146
:10551000C0F6000103226423FDF7D8FA1420FBF73C
:10552000FFFE601C4FF41671B1FBF0FB42F64C0716
:105530004FF000094FF4E67AC2F20007D84607E0C0
:10554000142009F10109FBF7EBFE4C45D84447D084
:1055500005994FF6E27031F919104044DAFA51F129
:1055600083B288B25FFA89F1AB267143490A01EB35
:105570004101A9EB010148F6C456C9B2C0F60006C4
:1055800008F11E0236F8111092B2CDE90002039123
:1055900038464FF480713BA2CDF808A002F012FD0E
:1055A00044F68420C2F201000668002EC8D03846B6
:1055B000FAF749FE82B2304639466423FDF786FA8F
:1055C00044F68420C2F2010000680028B8D048F6F2
:1055D000E251C0F6000103226423FDF777FAAFE73A
:1055E0009FED2D8A42F64C0840F2D11AC2F2000813
:1055F0000FF2A8095E4606E01420FBF791FE043581
:10560000013C5E4438D095ED000A6FF0310080EE29
:10561000080A10FA86F710EE100AFAF7A3FF41EC19
:10562000100B40464FF480714A463B46CDF800A02F
:105630008DED020B02F0C6FC44F68420C2F201009C
:105640000768002FD8D04046FAF7FDFD82B23846F1
:1056500041466423FDF73AFA44F68420C2F2010081
:1056600000680028C8D048F6E251C0F600010322C5
:105670006423FDF72BFABFE706B0BDEC028B01B047
:10568000BDE8F08F66696C6C2025642C25642C25A0
:10569000642C25642C25640000007A4478737472AD
:1056A0002025642C25642C3130302C33302C302CC8
:1056B00036353533352C302C312C312C22252E31FA
:1056C000666B22002DE9F04F81B000287CD089461E
:1056D000002979D0054642F64C004CF6D4424CF6EF
:1056E000DD43C2F20000C0F60002C0F600034FF432
:1056F000807102F067FC44F6842AC2F2010ADAF8EB
:105700000060BEB142F64C07C2F200073846FAF715
:105710009AFD82B2304639466423FDF7D7F9DAF8AC
:10572000000038B148F6E251C0F6000103226423BC
:10573000FDF7CCF93220FBF7F3FDB9F5167F28BF52
:105740004FF416793CA0494602F02CFC42F64C0678
:105750004CF6DD4B0027C2F200060FF2F408C0F64B
:10576000000B07E00220FBF7DBFD07F10A0087B220
:105770004F452DD235F817004FF48071C0F5E67013
:1057800084B2304642465B46B4F5E67F28BF4FF40C
:10579000E674009402F016FCDAF800100029E1D05B
:1057A00082B2084631466423FDF790F9DAF800002A
:1057B0000028D7D048F6E251C0F600010322642346
:1057C000FDF784F9CEE700BF01B0BDE8F08F00BF60
:1057D00042F64C004CF6DD43C2F200001FA2C0F6B8
:1057E00000034FF4807102F0EDFBDAF80050BDB118
:1057F00042F64C06C2F200063046FAF724FD82B2A9
:10580000284631466423FDF761F9DAF8000038B123
:1058100048F6E251C0F6000103226423FDF756F971
:105820004CF6CD4009FB00F0C10C0EA001B0BDE864
:10583000F04F02F0B7BB00BF54657374696E672008
:10584000616464207825642E2E2E0D0A000000006D
:105850006164642025732C302C25750072656620E8
:105860002573000077617665666F726D20746573CD
:10587000742025642073706172736520706F696E87
:1058800074732073656E740D0A000000B0B508B122
:10589000B0BD00BFA1F10A00042888BFB0BD0FF25F
:1058A0000601DFE800F00353253B0F0040F27801CA
:1058B000C2F20001012231A00A70BDE8B04000F040
:1058C000D7B800BF40F278044CF62540C2F200047D
:1058D0000125C0F600000021E570FFF76BFD4CF6D6
:1058E0002C40C0F600000121FFF764FD2570B0BD1B
:1058F00040F278044CF63A40C2F200040125C0F6AA
:1059000000000021A570FFF755FD4CF63340C0F6AE
:1059100000000121FFF74EFD2570B0BD40F2780474
:10592000C2F200040020E0704CF62540C0F60000F2
:1059300001210125FFF73EFD4CF62C40C0F600008A
:105940000021FFF737FD2570B0BD00BF40F278049D
:10595000C2F200040020A0704CF63A40C0F60000ED
:1059600001210125FFF726FD4CF63340C0F600006B
:105970000021FFF71FFD2570B0BD00BFE6B58BE924
:10598000878FE4B8AD2E2E2E0000000070B544F6CF
:105990008426C2F2010630604FF4FA60FBF7C0FCC7
:1059A00042F64C004CF6F442C2F20000C0F600028F
:1059B0004FF48071002302F005FB3468B4B142F665
:1059C0004C05C2F200052846FAF73DFC82B220469B
:1059D00029466423FDF77AF8306838B148F6E25179
:1059E000C0F6000103226423FDF770F802A0BDE8B1
:1059F000704000F03DB800BFE5B0B1E7BBAA207C25
:105A000020E6A8A1E5BC8F3A20E6B3A2E5BDA2201E
:105A10007C2031E591A8E69C9F00000010B540F283
:105A20007804C2F200046178022917D30A19937826
:105A3000FF2B11D1D2780240FF2A0DD1052913D3B3
:105A40002079652810D1E07901280DD16079A179FC
:105A50000022FFF71BFF07E01F2905D84A1C21443D
:105A60006270087110BD00BF0020607010BD0000A2
:105A700083B070B581B0044605A842F64C050EC04F
:105A800005A8C2F2000500901AA21DA328464FF4F3
:105A9000807102F097FA0646009B2844C6F1FC018B
:105AA000224602F0A9FA84192819C4F5807117A2B8
:105AB00002F088FA44F68425C2F201052B689BB1F6
:105AC000204442F64C0182B2C2F20001184664231F
:105AD000FCF7FCFF286838B148F6E251C0F6000137
