:020000040800F2
:10000000F84E00209D0100088D450008AD2E000827
:100010008945000835080008257B0008000000001D
:10002000000000000000000000000000ED65000876
:100030005108000800000000C5640008F1650008D0
:10004000B7010008B7010008B7010008B7010008B0
:10005000B7010008B701000855080008B7010008FB
:1000600055090008B7010008B7010008B7010008EA
:10007000B7010008B7010008B7010008B701000880
:10008000B7010008B7010008B7010008B701000870
:10009000B7010008B7010008B7010008B701000860
:1000A000B7010008B7010008B7010008B701000850
:1000B000B7010008B7010008B7010008B701000840
:1000C000B7010008B7010008B7010008B701000830
:1000D000B7010008B7010008B7010008B701000820
:1000E000B7010008B7010008B7010008B701000810
:1000F000B7010008B7010008B7010008B701000800
:10010000B7010008B7010008B7010008B7010008EF
:10011000B7010008B7010008B7010008B7010008DF
:1001200039080008B701000845080008B7010008B1
:10013000B7010008B7010008B7010008B7010008BF
:10014000B7010008B7010008B7010008B7010008AF
:10015000B7010008B7010008B7010008B70100089F
:10016000B7010008B7010008B7010008B70100088F
:10017000B7010008B7010008B7010008000000003F
:10018000B7010008B7010008DFF80CD000F084FACE
:100190000048004705940008F84E002006488047B4
:1001A00006480047FEE7FEE7FEE7FEE7FEE7FEE75C
:1001B000FEE7FEE7FEE7FEE7A1660008890100080A
:1001C0002DE9F05F0546002092469B46884606468C
:1001D000814640241BE0284641464746224600F01F
:1001E00093F853465A46C01A914110D31146184607
:1001F000224600F07AF82D1A67EB01084F46224696
:100200000120002100F071F817EB00094E41201E7B
:10021000A4F10104DFDC484631462A464346BDE8E6
:10022000F09F40EA01039B0703D009E008C9121FB1
:1002300008C0042AFAD203E011F8013B00F8013BA0
:10024000521EF9D27047D2B201E000F8012B491ECC
:10025000FBD270470022F6E710B513460A46044663
:100260001946FFF7F0FF204610BD10B5002200E050
:10027000521C835C8C5CA34201D1002BF8D1D8B214
:10028000E1B2401A10BD034611F8012B00F8012B12
:10029000002AF9D11846704700F0004230F00040C3
:1002A0000AD0C10D01F56071C0F3160042EA015198
:1002B000C20840071143704700200146704730B51F
:1002C0000B46014600202022012409E021FA02F514
:1002D0009D4205D303FA02F5491B04FA02F52844AE
:1002E000151EA2F10102F1DC30BD202A04DB203A08
:1002F00000FA02F1002070479140C2F1200320FA79
:1003000003F3194390407047202A04DB203A21FA76
:1003100002F00021704721FA02F3D040C2F120021E
:1003200091400843194670472DE9FE4F804681EA07
:100330000300C00F0C46009021F0004123F000455F
:10034000B8EB0200A94105D24046214690461C4622
:100350000B46024623F00040104347D0270DC7F359
:100360000A00C3F30A510290401A019040286BDA48
:10037000C3F3130040F4801B0098924620B1002381
:10038000D2EB030A63EB0B0B01985946C0F1400214
:100390005046FFF7AAFF06460D4650465946019AB9
:1003A00000F092F910EB08006141002487EA115235
:1003B00084EAE7731A4340D0009A62B3019A012A93
:1003C0004FEA075215DC001B61EB02014FF00042BF
:1003D00002EA0752CDE90042001C41F58011324685
:1003E0002B4600F092F903B0BDE8F08F404621465D
:1003F000F9E7001B61EB0201001C41F580130018B6
:100400005B412018A2F5001747EB030140EAD570C5
:10041000B6196D4111E06D084FEA360645EAC07520
:100420004FEA0752001B61EB0201001C41F58011ED
:1004300049084FEA30000019514132462B4603B0BB
:10044000BDE8F04F00F052B90098012240000023AF
:10045000D0EB020263EBE073009821464FEAE074B0
:10046000B8EB000061EB0401E9E783F000435BE7D0
:1004700081F0004158E72DE9FE4F81EA030404F0C2
:10048000004421F0004100944FF0000B23F00043A2
:1004900050EA01045ED052EA03045BD0C3F30A546D
:1004A000C1F30A552C44A4F2F3340194A0FB025486
:1004B000C1F3130141F48011C3F3130343F4801318
:1004C00001FB024400FB034E840A970A44EA81546C
:1004D00047EA8357A4FB076802958D0A05FB078549
:1004E0004FEA932C04FB0C542705029D4FEA065853
:1004F00047EA1637B5EB08056EEB070C870E920E30
:1005000047EA811742EA8312A7FB0201B6EB0B010F
:1005100064EB00042B0D43EA0C335E1844EB1C50D3
:10052000DA465146E7FB0201C5F313044FEA0B33E9
:1005300043EA14534FEA0432019C43EA0603A4F150
:100540000C040294009CCDE900B400F0DEF803B086
:10055000BDE8F08F00200146F9E72DE9F04D81EA72
:10056000030404F0004B21F0004514464FF0000A4C
:1005700023F0004150EA050220D054EA01021DD0C8
:10058000C5F30A570246C5F31303C1F31300C1F3C1
:100590000A5640F4801543F48013A7EB0608101B9D
:1005A000D64608F2FD3873EB050002D308F10108C6
:1005B00001E092185B41B8F1000F03DA0020014618
:1005C000BDE8F08D00204FF48011064684460EE011
:1005D000171B73EB050705D3121B63EB05030643DB
:1005E0004CEA010C49084FEA300092185B4150EA8E
:1005F0000107EDD152EA030012D082EA040083EA37
:100600000501084305D0101BAB4106D2012200238F
:1006100006E000224FF0004302E06FF001025310A9
:100620001AEB06004CEB085110EB0A0041EB0B01F2
:10063000BDE8F04D00F05AB8C1F30A52C1F31301FE
:1006400040F2FF3341F480119A4202DA0020014661
:10065000704740F233439A42A2F2334202DC5242E4
:10066000FFF752BEFFF741BE30B5041E71F1000422
:1006700004DB4FF00044404264EB0101141E73F1AF
:10068000000405DB1C464FF00043524263EB0403B9
:10069000994208BF904230BD1CB5094800900948F6
:1006A00001900546009C06E0E06840F0010394E8F4
:1006B000070098471034AC42F6D3FFF769FD0000FD
:1006C000D47F0208F47F0208202A06DBCB17203AE9
:1006D00041FA02F043EAE07306E041FA02F3D04047
:1006E000C2F12002914008431946704710B5141E0C
:1006F00073F1000408DA401C41F1000192185B41DB
:100700001A4301D120F0010010BD2DE9F04D9246B1
:100710009B4611B1B1FA81F202E0B0FA80F22032C8
:100720009046FFF7E2FD04460F4640EA0A0041EA20
:100730000B0153465A46084313D0114653EA0100B1
:1007400019D0C8F140025046FFF7DEFD05460E46BF
:10075000504659464246FFF7C8FD084305D00120E0
:1007600004E020463946BDE8F08D0020054346EA06
:10077000E0762C4337430A986305E40AA0EB0800AF
:100780000022FD0A44EA47540A3002D500200146FF
:10079000E9E7010510196941DDE9084500196941DA
:1007A000BDE8F04DA2E700000146806B036C026CCF
:1007B00013F0500F08D0D20648BF00F019BD806B6F
:1007C000C26C0846104700BF42F400710164016822
:1007D0008A6812F0405F01D000F0E6BC027E002A79
:1007E000FAD1CA6A12F4700F02D08A685205F3D4A3
:1007F0004A6822F020024A60016C21F48071016491
:10080000016CC90448BF00F0CFBC016C41F001018C
:10081000016400F0C9BC0000806B40210164416CA0
:1008200041F00401416400F0E3BC0000806B00F083
:10083000BDBC0000FEE7000044F2B050C2F2000070
:1008400001F02CB844F21060C2F2000001F026B8AA
:100850007047000070B582B043F61440C4F2010046
:100860000168C90773D040F60045C4F202050121B2
:1008700001602846022101F0C3FB0021019101998A
:10088000044689087C291FD800BF019801300190D7
:10089000019880087C2817D800BF0198013001908A
:1008A000019880087C280FD800BF01980130019082
:1008B000019880087C2807D800BF0198013001907A
:1008C0000198B0F5FA7FDFD3601EB0FA80F04609D8
:1008D0002846022101F094FB013818BF0120464050
:1008E00035D044F20850C2F200000078B0B140F6B2
:1008F000C000C2F2000042F2CA31405A6FF0270134
:10090000012C08BF2821084420EAE07140F6FF705E
:10091000814238BF084605F06DFD12E040F6C00088
:10092000C2F2000042F2ED31405C012C04D10128FA
:100930000DD8013002E000BF48B10138C0B205F067
:1009400067FD40F2B000C2F200000121017002B068
:1009500070BD000070B582B043F61440C4F20100CF
:10096000016849075AD540F60044C4F20204042144
:1009700001602046082101F043FB0021019101990B
:10098000054689087C291FD800BF019801300190D5
:10099000019880087C2817D800BF01980130019089
:1009A000019880087C280FD800BF01980130019081
:1009B000019880087C2807D800BF01980130019079
:1009C0000198B0F5FA7FDFD3681EB0FA80F04609CF
:1009D0002046082101F014FB013818BF01204640D1
:1009E0001CD040F6C000C2F2000042F2D931415C96
:1009F000012D03D10B2911D2012201E071B1FF2297
:100A000042F2DB330026C6548818C0B205F0A8FCB9
:100A100040F2B000C2F200000121017002B070BDCE
:100A200072B600BFFEE700002DE9F04F81B02DED5A
:100A30000E8B84B090ED001A9FED71BA0C46B0EEAB
:100A4000C11AB4EE4B1A02EE104AF1EE10FAB8BF1A
:100A5000B0EE4B1AB8EE429A81EE091AB0EE408A17
:100A6000DDE91CBA074698461646B0EE410A08F082
:100A700027FF40F2B40940F2B105C2F20009B3EE1B
:100A800004CAC2F2000599ED001A20EE0C0A28787B
:100A9000B5EE00DAB6EE08EA9FED5AAA20EE0D2A6E
:100AA00021EE0E1A31EE021A002818BFB0EE410AEC
:100AB000B4EE4A0AF1EE10FA86ED000AC8BFB0EEB5
:100AC00040AA042C03944FEA54042BD397ED030A55
:100AD00097ED021A20EE000A21EE011A31EE000A0B
:100AE000B1EEC00AB4EE4B0AF1EE10FAB8BFB0EEA8
:100AF0004B0A80EE090A08F0E3FE287899ED011A06
:100B000020EE0C0A20EE0D2A21EE0E1A002831EEFE
:100B1000021A18BFB0EE410A022C86ED010A2BD151
:100B2000002709E00027CDE901680398DDE91CBA38
:100B3000DDE90168022807D340F2B400A200C2F246
:100B400000003146FFF76DFBB8B200EE100AB8EEB8
:100B5000400A20EE080A80EE090A0120287088ED7C
:100B600000AAABF800708AED000A04B0BDEC0E8B51
:100B700001B0BDE8F08F00BFCDE9016806F10808BB
:100B800009F1080907F1100A4FF0020B002711E0E4
:100B9000B4EE4A0AA8EC010AF1EE10FAC4BF5F46AF
:100BA000B0EE40AA0BF1010B09F104095C450AF112
:100BB000080ABAD09AED010A9AED001A20EE000A4E
:100BC00021EE011A31EE000AB1EEC00AB4EE4B0A72
:100BD000F1EE10FAB8BFB0EE4B0A80EE090A08F049
:100BE0006FFE287820EE0C0A0128D1D199ED001A69
:100BF00020EE0D0A21EE0E1A31EE000AC8E700BF02
:100C00005F708930000048C310B540F22004C2F282
:100C10000004201D4FF4007108F0A6FB002811BF4E
:100C20004FF0FF3001202070002010BD2DE9F0436F
:100C300081B02DED0A8B82B040F22008C2F200088C
:100C400098F80030012B40F0038240F21803C2F202
:100C500000031F7840F6C009C2F200099FED031A95
:100C600009F51054002300EB073001E0000000C537
:100C7000D718B7FBF1F6103306FB1176B3F5007FFA
:100C800030F8166002EE106A07F10106B6FBF1F5C6
:100C9000B8EE422A05FB116632EE012A30F81660E2
:100CA00084ED102A02EE106A07F10206B6FBF1F598
:100CB000B8EE422A05FB116632EE012A30F81660C2
:100CC00084ED112A02EE106A07F10306B6FBF1F576
:100CD000B8EE422A05FB116632EE012A30F81660A2
:100CE00084ED122A02EE106A07F10406B6FBF1F554
:100CF000B8EE422A05FB116632EE012A30F8166082
:100D000084ED132A02EE106A07F10506B6FBF1F531
:100D1000B8EE422A05FB116632EE012A30F8166061
:100D200084ED142A02EE106A07F10606B6FBF1F50F
:100D3000B8EE422A05FB116632EE012A30F8166041
:100D400084ED152A02EE106A07F10706B6FBF1F5ED
:100D5000B8EE422A05FB116632EE012A30F8166021
:100D600084ED162A02EE106A07F10806B6FBF1F5CB
:100D7000B8EE422A05FB116632EE012A30F8166001
:100D800084ED172A02EE106A07F10906B6FBF1F5A9
:100D9000B8EE422A05FB116632EE012A30F81660E1
:100DA00084ED182A02EE106A07F10A06B6FBF1F587
:100DB000B8EE422A05FB116632EE012A30F81660C1
:100DC00084ED192A02EE106A07F10B06B6FBF1F565
:100DD000B8EE422A05FB116632EE012A30F81660A1
:100DE00084ED1A2A02EE106A07F10C06B6FBF1F543
:100DF000B8EE422A05FB116632EE012A30F8166081
:100E000084ED1B2A02EE106A07F10D06B6FBF1F520
:100E1000B8EE422A05FB116632EE012A30F8166060
:100E200084ED1C2A02EE106A07F10E06B6FBF1F5FE
:100E3000B8EE422A05FB116632EE012A30F8166040
:100E400007F10F0784ED1D2A02EE106AB7FBF1F6D9
:100E5000B8EE422A06FB117732EE012A30F81770FD
:100E600084ED1E2A02EE107AB8EE422A32EE012AF2
:100E700084ED1F2A04F140047FF4FAAE42F22040D0
:100E80009FED769A9FED76AAB0EE408A09EB0007B7
:100E90000024B7EE00BAB6EE00CA00BF00EE104A5A
:100EA000B8EE400A20EE090A80EE0A0A08F060FC5B
:100EB000601C01EE100AB8EE411A21EE091A81EE0B
:100EC0000A1A3BEE400A97ED082A20EE0C0A22EEA1
:100ED000000A87ED080A07F12006B0EE410A08F083
:100EE00047FCA01C01EE100AB8EE411A21EE091AC7
:100EF00081EE0A1A3BEE400A97ED092A20EE0C0A11
:100F000022EE000A87ED090AB0EE410A08F030FC33
:100F1000E01C01EE100AB8EE411A21EE091A81EE2A
:100F20000A1A3BEE400A97ED0A2A20EE0C0A22EE3E
:100F3000000A87ED0A0AB0EE410A08F019FC201DEC
:100F400001EE100AB8EE411A21EE091A81EE0A1AD2
:100F50003BEE400A97ED0B2A20EE0C0A22EE000A27
:100F600087ED0B0AB0EE410A08F002FC601D01EEAD
:100F7000100AB8EE411A21EE091A81EE0A1A3BEE68
:100F8000400A97ED0C2A20EE0C0A22EE000A87EDAB
:100F90000C0AB0EE410A08F0EBFBA01D01EE100AAE
:100FA000B8EE411A21EE091A81EE0A1A3BEE400A08
:100FB00097ED0D2A20EE0C0A22EE000A87ED0D0AAD
:100FC000B0EE410A08F0D4FBE01D01EE100AB8EEC5
:100FD000411A21EE091A81EE0A1A3BEE400A97EDFA
:100FE0000E2A20EE0C0A22EE000A87ED0E0AB0EE61
:100FF000410A08F0BDFB3BEE400A97ED0F1A20EEC8
:101000000C0A21EE000A083487ED0F0AB4F5007FC0
:1010100037467FF443AF09F5515408F1040009F550
:1010200011512246002307F067FE40F2B442C2F29B
:10103000000202F5816702F2044602F58063204651
:101040004FF40071B0EE480ACDE90067FFF7ECFC01
:1010500002B0BDEC0A8B01B0BDE8F083DB0FC940E4
:101060000080FF4370B581B00022009290F83C20D0
:10107000012A03D1022001B070BD00BFD1F800E009
:101080000122BEF10A0F1FFA8EFC80F83C2009D322
:101090004FEA4C02036812FA8EF2A2F11E0403F129
:1010A0000C0204E003680EEB4E0403F11002072566
:1010B0001668A54026EA050515608D68166805FACC
:1010C00004F4344314604968062907D801EB810110
:1010D0004A1F194651F8345F0FE000BF0C2901EB9D
:1010E000810105D8A1F12302194651F8305F04E0CF
:1010F000A1F14102194651F82C5F1F24944025EAC2
:1011000004040C600CFA02F20C6842F2043CC4F2D3
:10111000010C2243ACF54174A3420A603ED1BEF1FA
:10112000120F07D1DCF8001041F48001CCF8001058
:1011300034E000BF2EF0010110292FD1DCF800109F
:10114000BEF1100F41F40001CCF8001026D140F29E
:101150001401C2F2000109684DF68362C4F21B3229
:10116000A1FB0212910C01EB810149000091009951
:10117000A1B1009901390091009979B10099013923
:101180000091009951B1009901390091009929B15C
:1011900000990139009100990029EAD1002180F8D5
:1011A0003C10002001B070BD704700007047000087
:1011B000002804BF012070470168026C42F002025F
:1011C00002648A6822F001028A608968C90709D12D
:1011D00010B5044600F0BCF820460021616421648B
:1011E000BDE81040002180F83C100020704700004E
:1011F00070470000002804BF0120704710B5016C43
:1012000000293DD0016CC90645D4016C41F202129F
:101210009143023142F204320164C4F201021168C6
:1012200021F440311160136890E812102343D0F884
:1012300010E013604A68012422F480724A604A6810
:10124000C0F6007442EA0E224A604A6822F04072F8
:101250004A604A6842EA0C024A608A6822F40062E4
:101260008A60C2688B681A438A60826A8B68A2426D
:1012700023F070638B608B6810D123F0405216E02E
:10128000044600F09FF820460021616484F83C1079
:10129000016CC906B9D5012153E000BF1A438A6029
:1012A0008A6822F040528A60C26A8B681A438A6058
:1012B0008A6822F002028A608A68037E90F82040E1
:1012C00042EA43028A604A6884B142F400624A609A
:1012D0004A684EF2000322F460424A60426ACFF646
:1012E000FF734C6803EB4232224301E022F40062B8
:1012F0004A60CA6A40F2000C22F47002CA62C369F2
:101300004269CFF6F07CCC6A0CEB03532343CB62EB
:101310008B6823F400738B6090F830308C6844EA5B
:1013200043238B608B6823F480638B608B6843EA74
:1013300082228A6000214164026C012363F301026E
:101340000264002280F83C20BDE810400846704747
:1013500010B50446006842F20011C4F2010188424F
:101360001CD042F20001C4F20101884218BF10BD36
:1013700043F64400C4F20200016821F48071016068
:1013800040F20040C4F2020000F58060102100F03D
:101390007FFCA06BBDE8104000F03CBA43F644006F
:1013A000C4F20200016821F40071016040F20040C3
:1013B000C4F20200022100F06BFCA06BBDE81040FB
:1013C00000F028BA70B586B00446006842F20011F9
:1013D000C4F2010100268842CDE90466CDE9026627
:1013E000019651D042F20001C4F20101884240F05E
:1013F0009D8043F630000096C4F20200416941F43A
:1014000080714161416901F48071009100990096F9
:10141000016841F004010160006801A900F00400C6
:1014200000900098102001900320CDE9020640F2C0
:101430000040C4F2020000F5806000F011FD44F2AB
:10144000B05546F21040C2F20005C4F202004FF45B
:101450008061C5E9000605F110004FF400624FF409
:1014600000534FF4807C80E80E102846C5E90266E0
:10147000C5E9086600F0F4FA002818BFFFF7D0FAB3
:10148000A563AC6306B070BD43F630000096C4F2AD
:101490000200416941F400714161416901F4007148
:1014A000009100990096016841F002010160006816
:1014B00001A900F002000090009802200190032092
:1014C000CDE9020640F20040C4F2020000F0C8FC80
:1014D00046F21040C4F2020044F210653030C2F20D
:1014E00000054FF000714FF4006385E8430005F1FB
:1014F00014004FF480624FF4005C4FF4807E80E86B
:1015000008502846C5E90362C5E9086600F0A8FA54
:10151000002818BFFFF784FA3A2000210022A563B3
:10152000AC6300F003FE3A2000F0EEFD06B070BDA3
:10153000B0B582B00023019390F83C30012B03D169
:10154000022002B0B0BD00BF8E460123016880F8C2
:101550003C308B689446DB0729D18B684DF6836459
:1015600043F001038B6040F21403C2F200031B68D6
:10157000C4F21B34A3FB0434A30C03EB4303019319
:10158000019BA3B1019B013B0193019B7BB1019B9B
:10159000013B0193019B53B1019B013B0193019BD3
:1015A0002BB1019B013B0193019B002BEAD18B687E
:1015B000DB0503D58B6823F480738B608C68036C28
:1015C000E4070BD143F01001016400F14401002055
:1015D00001220B681A430A6002B0B0BD40F20174E8
:1015E000A34303F5807303644B685B0504D5036C68
:1015F000012464F30D330364046C0023E4044FF00E
:10160000000444BF446C24F00604446480F83C3079
:10161000836B40F2A97440F62D02C0F60004C0F6B8
:101620000002C3E90F4240F61902C0F60002DA6474
:101630006FF022020A604A6842F2043442F080628B
:101640004A608A68054642F480728A604C311846C6
:1016500072466346C4F2010400F0B4FA22682968B5
:10166000D20605D0A4F54172914225D002B0B0BD9A
:1016700042F20002C4F20102914215D042F200226D
:10168000C4F2010291420CD042F20012C4F20102F3
:101690009142EBD12268D20606D0A4F58272914223
:1016A000E4D12268D206E1D451F8082F12F0405F4D
:1016B000DCD14FF080428CE74FF60451CFF6FF713A
:1016C000615811F0405FD1D1A4F53F714FF08042D5
:1016D0007FE7000090F83C10012904BF022070470A
:1016E000B0B50121026880F83C109168002421F017
:1016F000010191609168C9074FF0000123D1916801
:1017000021F480719160816B91F83520022A0BD110
:101710000546084600F036F840B12A6C01462846D6
:1017200042F040022A6403E0002101E00021284643
:101730000268536823F080635360026C41F2011326
:101740009A430132026480F83C40BDE8B04008464C
:101750007047000081B04FF0000CCDF800C068B1B8
:101760000068002900900098104414BF143008301D
:10177000009000980360002001B07047012001B084
:101780007047000070B5866D044600F04DFC94F87B
:101790003510022928D105462068216C026822F004
:1017A00016020260426922F08002426109B9A16C0E
:1017B00019B1016821F008010160016821F00101FF
:1017C000016000BF20680068C00715D000F02CFC45
:1017D000401B0628F6D320206065032084F83500DE
:1017E000002184F8341070BD802060650120002144
:1017F00084F8341070BD00BFE06D3F2101FA00F0A5
:10180000B060012084F835000020002184F83410F5
:1018100070BD0000002804BF0120704790F835100B
:10182000022904BF02207047B0B501684AF6AB2216
:1018300001F0F803D1F800C0A3F11005CAF6AA22FE
:10184000A5FB022E2CF001020A60002221234FF694
:101850008C240A604A608A60CA600A614B614FEA60
:101860001E13C0F60004E35C40F2FF34A1435F2D79
:101870004FF03F0588BF0431C0E9161305FA03F3A2
:10188000C0E90F22C0E91122C0E913228B60426532
:1018900080F8352080F834200020B0BDF0B581B04C
:1018A0000021009140F21401C2F200010B68D0E95E
:1018B000166148F2B51537680822C1F64E358A40E0
:1018C0003A42A3FB05350CD003681C68640708D5B1
:1018D0001C6824F004041C60B260426D42F00102F6
:1018E000426501228A403A4208D003685B691B06C0
:1018F00004D5B260426D42F00202426504228A4081
:101900003A4208D003681B689B0704D5B260426D59
:1019100042F00402426510228A403A4219D001681E
:101920000B681B0715D5B2600B680A685B0309D406
:10193000D20509D40A6822F008020A60016C29B9AC
:1019400007E000BF110341D4016C11B10446884780
:101950002046C26D202101FA02F33B4243D00168C8
:101960000F68FF063FD5B36090F835700B68052F00
:101970001CD123F016030B604B6923F080034B61ED
:10198000036C0BB9836C1BB10B6823F008030B606D
:101990003F219140B160012180F83510016D002296
:1019A000002980F8342054D158E000BF0A685B0356
:1019B00010D4D20512D40A6822F010020A60012164
:1019C00080F83510002180F8341007E0816C002980
:1019D000BCD1BEE7110301D4416C00E0C16B11B171
:1019E000044688472046416DC1B3416DC9072ED0DA
:1019F000052180F835100168AA0A0B6823F001035D
:101A00000B60009B0133934200931AD80B68DB07ED
:101A100017D0009B01339342009312D80B68DB0769
:101A20000FD0009B0133934200930AD80B68DB0769
:101A300007D0009B01339342009302D80B68DB0769
:101A4000DFD1012180F83510002180F83410C16CFD
:101A500021B101B0BDE8F040084700BF01B0F0BDC2
:101A60002DE9F041044600F0DFFAECB10546022012
:101A700084F835000020216884F83400086820F0DC
:101A80000100086021680868C00711D000F0CCFA96
:101A9000401B0528F6D9032520230320636584F81D
:101AA0003550BDE8F08100BF0120BDE8F08100BFE6
:101AB000086848F23F02CFF21002D4E9013500EA8B
:101AC000020C04F10C0898E8C10143EA0C032B4313
:101AD0001843D4E9072E304338431043626A40EA82
:101AE0000E00042A40EA08031CD1206BD4E90A2E18
:101AF00040EA0E00184308604869BEF1000F20F06C
:101B0000030040EA020040F0040C11D0B8F5005F79
:101B100036D0B8F1000F45D1022A46D0012A3BD079
:101B200032B942E00B60486920F0070040EA020C3D
:101B300001F0F8004AF6AB221038CAF6AA22A0FB40
:101B400002231A094FF68C23C1F814C0C0F6000313
:101B50009A5C40F2FF335F284FF03F0021EA030117
:101B600000FA02F088BF0431C4E91612886000232D
:101B700001250020636584F83550BDE8F08100BF81
:101B8000032AD5D8012540230120DFE802F0030E07
:101B9000030500BF82E700BFAEF1C070B0FA80F06D
:101BA000400904E0032A04D3C2D1CEF30060002828
:101BB000BED0012540230120636584F83550BDE87F
:101BC000F081000090F834C0BCF1010F04BF022086
:101BD000704770B54FF0010C80F834C0D0F858E071
:101BE00090F835C0BCF1010F38D14FF0020C80F8ED
:101BF00035C04FF0000CC0F854C0D0F800C0846865
:101C0000056CC06DDCF80060402C26F48026CCF812
:101C10000060CCF804300B4604BF13460A463F214F
:101C200001FA00F0CCF80830CCF80C20CEF808000F
:101C3000DCF8000040F01600CCF800002DB1DCF814
:101C4000000040F00800CCF80000DCF8000040F094
:101C50000100CCF80000002070BD00BF002180F81A
:101C60003410022070BD0000B0B5044600F0DCF96D
:101C7000054640F20C00C2F200000078611C18BF5B
:101C8000044400BF00F0D0F9401BA042FAD3B0BD1D
:101C90002DE9F04F83B000F13E4241F600478846FF
:101CA00002F1FF72C4F2020708214FEAB223B842E0
:101CB00008BF072100F12007002604244FF0020985
:101CC0000197072B38BF4FEAB2210291CDF800806F
:101CD00026E000BF0168032202FA09F29143016085
:101CE0006FF00303019D03EA560304F01C01EE5854
:101CF0000F2707FA01F126EA0101E950C168914373
:101D0000C160416821EA0C014160816891438160B2
:101D10000EF101060834102E09F1040900F09C8030
:101D2000012101FA06FB1BEA080359D043F60041E2
:101D3000C4F20101A4F1040CA1F57E7826F003079A
:101D40000CF0080E0F2158F8077001FA0EFA0299EC
:101D500007EA0A0701FA0EF2974220D143F6004E35
:101D6000C4F2010EDEF8002043F60C419A43CEF88F
:101D70000020DEF80420C4F201019A43CEF80420CA
:101D80000A68B7089A430A60DEF808209A43CEF83A
:101D9000082058F8272022EA0A0248F82720A9F14B
:101DA00002020368032101FA02F2934303606FF019
:101DB0000301019D01EA56070CF0180CE9590F23A5
:101DC00003FA0CF39943E951C1689143C16041683A
:101DD00021EA0B014160816891438160DDF8008058
:101DE00006F1010E012101FA0EFC1CEA08038FD056
:101DF00043F60041C4F20101A1F57E7B26F0030108
:101E000004F00C070F225BF8011002FA07FA029A9D
:101E100001EA0A0102FA07F7B9427FF45BAF43F621
:101E20000042C4F20102116843F60C479943116065
:101E30005168C4F201079943516039689943396088
:101E40009168B708994391605BF8271021EA0A016D
:101E50004BF827103EE700BF03B0BDE8F08F00004D
:101E60002DE9F04F83B000F1200200F13E4741F62A
:101E70000045009207F1FF77C4F2020508224FEAFD
:101E8000B726A84208BF072200254FF000084FF0F0
:101E90000009072E38BF4FEAB72201920AE000BFBF
:101EA00009F1010908F10208B9F1100F05F1040563
:101EB00000F0A2800F68012202FA09FE17EA0E0A5A
:101EC000EED0D1F804C003220CF003077E1E02FA04
:101ED00008F4012E6FEA040B12D88468CE6804EA75
:101EE0000B0406FA08F634438460446824EA0E06BC
:101EF000CCF3001404FA09F42643466004E000BF62
:101F0000032F01D103271EE0C6688C6806EA0B0682
:101F100004FA08F42643022FC66014D16FF00302BE
:101F2000009E02EA590756F807C005F01C040F226C
:101F30000B69A2402CEA0202A3401A43F251D1F8E5
:101F400004C00CF00307026807FA08F302EA0B0268
:101F50001A431CF4403F0260A2D0002243F644031F
:101F60000292C4F202031A6843F6004442F480422B
:101F70001A601A68C4F2010402F480420292029AC2
:101F800029F003024FF6084C2244CFF6FF7C52F8AA
:101F90000C3005F00C070F26BE40B343019E06FA35
:101FA00007F73B4342F80C30A2684B6842EA0A0745
:101FB00043F60C4CDE0258BF22EA0A07A760C4F2BF
:101FC000010CDCF800209E0242EA0A0758BF22EA10
:101FD0000A07CCF8007062689E0342EA0A0758BFFD
:101FE00022EA0A0767602268DB0342EA0A0758BF51
:101FF00022EA0A07276053E703B0BDE8F08F00002C
:102000000069084018BF012070470000426902EAD9
:102010000103914341EA034181617047002A08BFEF
:10202000090481617047000044F6F020C2F200000C
:102030000068704740F20C0044F6F021C2F2000044
:10204000C2F2000100780A6810440860704700007E
:1020500080B543F60040C4F20200016841F400710B
:102060000160016841F480610160016841F48071A0
:102070000160032000F086F80F2000F005F800F062
:1020800027F8002080BD000070B540F20C06C2F2B7
:10209000000640F214013278C2F200014FF47A7364
:1020A0000968B3FBF2F20446B1FBF2F1084600F016
:1020B00007FD0F2C4FF0010508D838B94FF0FF305D
:1020C00021460022002500F031F87460284670BDDA
:1020D00082B0002043F640010190C4F202014A6838
:1020E00042F480424A604A6802F480420192019AB6
:1020F0000090086840F080500860086800F0805048
:102100000090009802B07047002848BF704700F068
:102110001F01012202FA01F11C2202EAD0004EF254
:102120000012CEF2000281507047000010B54EF64A
:102130000C5CCEF2000CDCF80030C3F3022E8EF003
:102140000704042C28BF0424BEF103034FF0FF3E14
:102150000EFA04F438BF0023A14399400EFA03F3AA
:102160009A43114300F00F0200F160430901043A61
:1021700003F564436244002848BF02F10C03197060
:1021800010BD00004EF60C51CEF200010A684FF669
:10219000FF031A4060F30A2242F0806040F0FD70B5
:1021A00008607047002804BF012070472DE9F04106
:1021B00043F60808C4F202080446D8F8F8030D46AE
:1021C00000F00700884207D288F8F853D8F8F803DF
:1021D00000F00700A84277D12068810717D5410792
:1021E00005D5D8F8001041F4E051C8F800100107F7
:1021F00005D5D8F8001041F46041C8F80010D8F8AF
:102200000010A26821F0F0011143C8F80010C007C7
:1022100040D1D8F8F80300F00700A84207D988F8A1
:10222000F853D8F8F80300F00700A8424CD1206812
:10223000410707D5D8F80010E26821F4E0511143B6
:10224000C8F80010000708D5D8F80000216920F46C
:10225000604040EAC100C8F8000000F055F8D8F826
:1022600000104AF21452C1F30311C0F60002515C8F
:1022700040F2140220FA01F140F21000C2F2000014
:102280000068C2F200021160FFF7FEFE0020BDE808
:10229000F08100BF6068811E022907D258F8081C2F
:1022A00089015CBF0120BDE8F08111E0012807D160
:1022B00058F8081C89035CBF0120BDE8F08107E0E5
:1022C00058F8081C890703D40120BDE8F08100BF3D
:1022D000D8F8001021F003010843C8F80000FFF708
:1022E000A3FE064641F28837D8F80000616800F086
:1022F0000C00B0EB810F8CD0FFF796FE801BB8422C
:10230000F2D90320BDE8F08110B543F60404C4F20D
:102310000204606800F00C0142F200400829C0F29B
:10232000F40007D0042918BF10BD41F20020C0F20C
:102330007A0010BD216801F03F022168236849023C
:10234000C3F3881106D4A1FB00010023FDF738FF79
:1023500007E000BF41F20020C0F27A004843B0FB22
:10236000F2F021680222C1F3014102EB4101B0FB0E
:10237000F1F010BD002804BF012070472DE9F041A5
:1023800082B00446007843F60006C007C4F2020695
:102390000CD0B06800F00C00042840F08180306858
:1023A000800303D56068002800F0688120788007EA
:1023B0001BD5B06810F00C0F09D0B06800F00C000D
:1023C000082840F087807068400200F18380306800
:1023D000800703D5E068012840F05081306821690A
:1023E00020F0F80040EAC10030602078000713D4E4
:1023F000207840072AD4A569002D00F03A81B06802
:1024000000F00C00082840F0A580012D40F00E815E
:10241000012002B0BDE8F0816069002800F08280F0
:102420000020C4F247200121C0F8801EFFF7FCFD08
:10243000054600BF706F8007DAD4FFF7F5FD401B3B
:102440000228F7D9032002B0BDE8F081306C5FEAC2
:10245000C0080AD400200190306C40F080503064F5
:10246000306C00F080500190019847F20007C4F2F0
:1024700000073868C00547D4386840F48070386079
:10248000FFF7D2FD054600BF3868C0053CD4FFF712
:10249000CBFD401B0228F7D9032002B0BDE8F08134
:1024A000B06800F00C00082803D1706840023FF5C6
:1024B00076AF61683068B1F5803F07D0B1F5A02FE5
:1024C00040F09A8040F480203060306840F48030E2
:1024D00030609AE0E068002840F20000C4F2472033
:1024E0005CD001210160FFF79FFD05463068800741
:1024F0003FF574AFFFF798FD401B0228F6D9032083
:1025000002B0BDE8F08100BFA168306F012905D09D
:10251000052955D140F004003067306F40F00100CC
:10252000306756E00020C4F247200021C0F8801E2A
:10253000FFF77AFD054600BF706F80077FF558AF43
:10254000FFF772FD401B0228F6D9032002B0BDE858
:10255000F08100BF0027C4F2472700203866FFF74C
:1025600063FD022D05460DD13068800140F18A805F
:10257000FFF75AFD401B02284FF00300F4D902B0C8
:10258000BDE8F0813068800173D5FFF74DFD401B39
:1025900002284FF00300F5D9F1E700BF00210160E8
:1025A000FFF742FD054600BF306880077FF51DAF8D
:1025B000FFF73AFD401B02284FF00300F4D9DEE795
:1025C00020F001003067306F002920F004003067F0
:1025D0007AD0FFF729FD054641F28837306F800732
:1025E00000F18480FFF720FD401BB842F6D903209C
:1025F00002B0BDE8F08100BF20F480303060306868
:10260000002920F4802030607AD0FFF70DFD0546C8
:10261000306880033FF5CAAEFFF706FD401B642813
:10262000F6D9032002B0BDE8F08100BF7068E1690F
:1026300000F480028A4221D1216A00F03F028A42DE
:102640001CD147F6C071626A0140B1EB821F15D1FF
:10265000A16A4FF6FF73C903994300F44032A1F514
:1026600080318A420AD1E16A00F07060B0EB016FFC
:1026700004D1002002B0BDE8F08100BF012002B00B
:10268000BDE8F08104F11C052FCD084340EA82101B
:10269000D9034FF6FF729143A1F5803140EA0560FE
:1026A0000843706001203866FFF7BEFC044600BF97
:1026B00030688001DDD4FFF7B7FC001B02284FF023
:1026C0000300F5D95BE700BFFFF7AEFC054641F21A
:1026D000883700BF306F800708D5FFF7A5FC401B87
:1026E000B8424FF00300F5D949E700BFB8F1000F39
:1026F0003FF581AE306C20F0805030647BE600BF47
:10270000FFF792FC054600BF306880037FF54EAEB0
:10271000FFF78AFC401B64284FF00300F4D92EE732
:1027200070B528B1416A29B100210161142106E088
:10273000012070BD4168B1F5827F02D01C210022CA
:1027400042500026866290F8511029B980F85060F6
:10275000054600F03DF82846022180F8511090E827
:102760002E0002F482720C6803F4044324F0400447
:102770000C601A4405F4006305691A4405F002036D
:1027800045691A4405F001038569C4691A4405F4D2
:1027900000731A4404F03803046A1A4404F08003F6
:1027A000846A1A4304F400531A430A60436A0422F9
:1027B00002EA154203F010031A444A60CA6922F47F
:1027C0000062CA610121466580F85110304670BD33
:1027D00080B586B043F200010068C4F20101002216
:1027E00088420592CDE903220292019202D006B0FE
:1027F00080BD00BF43F630000092C4F2020043697E
:1028000043F480534361436903F480530093009B76
:102810000092036843F001030360006800F00100C8
:1028200000900098E02001900220CDE902020320F0
:1028300004900520059001F5504001A9FFF710FB19
:1028400006B080BD2DE9F04184B01D4616460F4606
:102850000446FFF7E9FB94F8511001290ED1804698
:10286000002F4FF0010018BF002E03D104B0BDE8C7
:10287000F08100BF94F85000012803D1022004B079
:10288000BDE8F081012084F850000320002184F885
:10289000510061652763A686E686A163A187E1876B
:1028A000A0682164B0F5004F2068616407D1016819
:1028B00021F040010160016841F48041016001683C
:1028C000490603D4016841F0400101606168731E4C
:1028D000E268B1FA81F1B3FA83F349095B09B2F511
:1028E000006F41EA030139D131B137F8021BC160F1
:1028F0002763E08E0138E086E08E002870D0681CE7
:102900000BD11AE0216B31F8022BC2602163E08EFB
:102910000138E086E08E002862D02068816889074F
:10292000F0D4FFF781FBA0EB0800A842F2D338E017
:10293000FFF77AFBE08E002852D020688168890773
:10294000F6D5216B31F8022BC2602163E08E01388D
:10295000E086E08E0028F0D142E000BF39B139783E
:102960000173206B01302063E08E0138E086E08E39
:10297000B0B3681C0BD123E0216B09780173206B85
:1029800001302063E08E0138E086E08E40B320689D
:1029900081688907F0D4FFF747FBA0EB0800A84245
:1029A000F3D3012084F85100002084F85000032064
:1029B00004B0BDE8F08100BFFFF736FBE08E78B1D0
:1029C000206881688907F7D5216B09780173206B2E
:1029D00001302063E08E0138E086E08E0028EFD1E0
:1029E0002046022101222B46CDF8008003F06CFD29
:1029F000E0B1606D40F02000606520206065A06857
:102A000038B9002002902068C16802918068029065
:102A10000298012084F85100002084F85000606D75
:102A2000002818BF012004B0BDE8F08140F2140076
:102A3000C2F20000006849F68171C1F25E61A0FB3C
:102A40000101480D4FF47A71484303906068B0F576
:102A5000827F0BD12046802100222B46CDF80080BA
:102A600003F032FD0028C4D1C9E700BF0398002855
:102A7000C5D0039801380390206880680006BED551
:102A800003980028BBD00398013803902068806821
:102A90000006B4D503980028B1D0039801380390FC
:102AA000206880680006AAD503980028A7D003985C
:102AB00001380390206880680006D7D49FE70000A3
:102AC000411E0020B0EB116F1CBF012070474EF279
:102AD0001002CEF2000251604EF62351CEF20001F8
:102AE000F0230B70072190601160704790F83C2034
:102AF000012A4FF0020254D010B580F83D20026840
:102B0000D2F804E0D2F808C00C682EF0700323431A
:102B100041F2FF74C4F20004A24253600EDC40F2A2
:102B2000FF73C4F200039A4216DCB2F1804F2BD03F
:102B300040F20043C4F2000324E000BF40F2FF3340
:102B4000C4F201039A4213DC41F60003C4F200030D
:102B50009A4219D0002313E040F60003C4F20003A8
:102B60009A4211D040F60043C4F200030AE000BFCD
:102B700044F20003C4F201039A4205D040F200433C
:102B8000C4F201039A4204D149682CF0800319432E
:102B900091600121002280F83D1080F83C20BDE8C2
:102BA0001040104670470000002804BF0120704705
:102BB00010B5044690F83D0028B9002084F83C0088
:102BC000204600F01FF8022084F83D002068211DF7
:102BD00003F070FD012084F8460084F83E0084F87C
:102BE0003F0084F8400084F8410084F8420084F8F3
:102BF000430084F8440084F8450084F83D00002038
:102C000010BD00000068B0F1804F18BF704781B060
:102C10000020009043F64000C4F20200016841F039
:102C200001010160006800F001000090009801B00F
:102C30007047000090F83D1001291CBF012070472B
:102C4000022180F83D10006841F2FF71C4F20001DA
:102C500088420DDC40F2FF71C4F20001884215DCAD
:102C6000B0F1804F2AD040F20041C4F2000123E0CD
:102C700040F2FF31C4F20101884213DC41F6000149
:102C8000C4F20001884219D0002113E040F600018F
:102C9000C4F20001884211D040F60041C4F20001A4
:102CA0000AE000BF44F20001C4F20101884205D0ED
:102CB00040F20041C4F20101884206D1816801F06E
:102CC0000701062904BF00207047016841F0010197
:102CD00001600020704700000146006841F21113B6
:102CE000026A1A4204D00122002081F83D20704778
:102CF000026A40F244431A42F5D1026822F001020E
:102D000002600122002081F83D20704790F83C20AD
:102D1000012A4FF002026CD080B580F83D20D0F837
:102D200000C04FF67772DCF8083023EA0202CCF8D4
:102D300008200B684F2B29DC1F2B45DD202B46D0AC
:102D4000302B44D0402B40F0AF80D1F804E0C9686C
:102D5000DCF82030DCF8202022F00102CCF8202022
:102D6000DCF8182022F0F00242EA011123F00A02F6
:102D700042EA0E02CCF81810CCF82020DCF808103B
:102D800041F0470121F0300128E000BF6F2B33DD17
:102D9000B3F5005F74D0B3F5805F21D0702B40F0A5
:102DA0008380D1E901E3C968DCF8082043EA0E0317
:102DB00022F47F4243EA01211143CCF80810DCF8E9
:102DC000081041F0770109E00BB1102B6CD1DCF851
:102DD000081021F07001194341F00701CCF80810E8
:102DE0000022012180F83D10002180F83C10BDE850
:102DF00080401046704700BF502B21D0602B53D12C
:102E0000D1F804E0C968DCF82030DCF8202022F09A
:102E10001002CCF82020DCF8182022F4704242EA9C
:102E2000013123F0A00242EA0E12CCF81810CCF8BF
:102E30002020DCF8081041F0670121F01001CDE7F7
:102E4000D1F804E0C968DCF82030DCF8202022F05A
:102E50000102CCF82020DCF8182022F0F00242EA2F
:102E6000011123F00A0242EA0E02CCF81810CCF845
:102E70002020DCF8081041F0570121F02001ADE7D7
:102E8000D1E901E3C968DCF8082043EA0E0322F423
:102E90007F4243EA01211143CCF80810DCF8081006
:102EA00041F480419AE700BF01229AE7FEE7000063
:102EB0002DE9F04782B0054640F2000800200021CD
:102EC000EF2240F23F13C4F2020800F07DFF4046BB
:102ED000102101222F0AFFF7A1F840460821002205
:102EE000FFF79CF84DF2004444F27066CFF6FE7492
:102EF000C2F200060DF106090DF1070A30464946F7
:102F000001220A238DF80670FFF79CFC30465146DB
:102F100001220A238DF80750FFF794FC0134EDD30A
:102F2000404608210122FFF779F802B0BDE8F0879A
:102F30002DE9F04F85B0841A1D460E460746DDF890
:102F400038C038BF141AC81A4FF0FF314FF0FF33A2
:102F500038BF0123029338BFA81B04900192BA42E4
:102F600088BF0121039138463146624600F02EF8B1
:102F7000AB46AE4202D10198874224D004980FFAA2
:102F800084FAAAEB000800B2C0F100094FEA480039
:102F900000B248450399C8BF0F4450450299BCBFD1
:102FA0000E44D04448450498BDB2B4B20E9AC8BF8E
:102FB000A8EB00082846214600F008F85C45E5D15A
:102FC00001988542E2D105B0BDE8F08FEF2888BFB7
:102FD000704770B582B014468A09042A2CD802467C
:102FE0000B4600F0F1FE0025C4F202052846102130
:102FF0000122FFF713F8284608210022FFF70EF8F8
:1030000044F27066200AC2F200068DF806000DF147
:103010000601304601220A23FFF714FC0DF10701D7
:10302000304601220A238DF80740FFF70BFC2846A3
:1030300008210122FEF7F2FF02B0BDE870407047A0
:10304000EF2888BF70472DE9F04782B08F09042F21
:1030500042D8EF2A28BFEF22B3F59F7F88BF40F206
:103060003F13171A5E1A40F2000801370136C4F206
:10307000020806FB07F400F0A7FE404610210122DB
:10308000FEF7CCFF404608210022FEF7C7FFF4B14F
:10309000DDF8289044F270654FEA1926C2F2000567
:1030A0000DF1060A0DF107072846514601220A23B1
:1030B000013C8DF80660FFF7C5FB28463946012222
:1030C0000A238DF80790FFF7BDFB002CECD140469A
:1030D00008210122FEF7A2FF02B0BDE8F0477047C9
:1030E0002DE9F04F87B000200690CDE90400CDE92E
:1030F0000200019043F63000C4F202000168002291
:1031000041F0020101600168002401F00201019117
:10311000019901920168C4F2020441F001010160C9
:10312000006802AD00F001000190019808200290B3
:1031300002204FF00108059020462946CDE9038280
:103140000026FEF78DFE1020029020462946FEF74D
:1031500087FE4020029020462946FEF781FE204649
:1031600008210122FEF75AFF204610210122FEF716
:1031700055FF204640210122FEF750FF2046402106
:103180000122FEF74BFF0A20FEF76EFD204640218C
:103190000022FEF743FF0A20FEF766FD204640218D
:1031A0000122FEF73BFF7820FEF75EFD204610214E
:1031B0000022FEF733FF204608210022FEF72EFFF3
:1031C00044F27065C2F2000502A9284601220A23D2
:1031D0008DF80880FFF736FB204608210122FEF714
:1031E0001DFF9620FEF740FD204610210022FEF72D
:1031F00015FF204608210022FEF710FF11208DF850
:10320000080002A9284601220A23FFF71BFB2046DB
:1032100008210122FEF702FF7820FEF725FD204657
:1032200010210022FEF7FAFE204608210022FEF7B8
:10323000F5FE3A208DF8080002A9284601220A234B
:10324000FFF700FB204608210122FEF7E7FE20469B
:1032500010210122FEF7E2FE204608210022FEF79F
:10326000DDFE05208DF8080002A9284601220A2368
:10327000FFF7E8FA204608210122FEF7CFFE20469C
:1032800010210022FEF7CAFE204608210022FEF788
:10329000C5FE36208DF8080002A9284601220A231F
:1032A000FFF7D0FA204608210122FEF7B7FE20469C
:1032B00010210122FEF7B2FE204608210022FEF76F
:1032C000ADFE02A9284601220A238DF808600026D7
:1032D000FFF7B8FA204608210122FEF79FFE20469C
:1032E00010210022FEF79AFE204608210022FEF758
:1032F00095FEB2208DF8080002A9284601220A2373
:10330000FFF7A0FA204608210122FEF787FE20469B
:1033100010210122FEF782FE204608210022FEF73E
:103320007DFE0C208DF8080002A9284601220A2300
:103330000C27FFF787FA204608210122FEF76EFED0
:10334000204610210122FEF769FE204608210022B6
:10335000FEF764FE02A9284601220A238DF80870B0
:10336000FFF770FA204608210122FEF757FE20469B
:1033700010210122FEF752FE204608210022FEF70E
:103380004DFE02A9284601220A238DF80860FFF7A6
:1033900059FA204608210122FEF740FE204610215E
:1033A0000122FEF73BFE204608210022FEF736FEF2
:1033B000332602A9284601220A238DF80860FFF768
:1033C00041FA204608210122FEF728FE204610215E
:1033D0000122FEF723FE204608210022FEF71EFEF2
:1033E00002A9284601220A238DF80860FFF72AFA6D
:1033F000204608210122FEF711FE2046102100225E
:10340000FEF70CFE204608210022FEF707FEB7203B
:103410008DF8080002A9284601220A23FFF712FAB4
:10342000204608210122FEF7F9FD20461021012245
:10343000FEF7F4FD204608210022FEF7EFFD3520BF
:103440008DF8080002A9284601220A23FFF7FAF99D
:10345000204608210122FEF7E1FD2046102100222E
:10346000FEF7DCFD204608210022FEF7D7FDBB2039
:103470008DF8080002A9284601220A23FFF7E2F985
:10348000204608210122FEF7C9FD20461021012215
:10349000FEF7C4FD204608210022FEF7BFFD1920DB
:1034A0008DF8080002A9284601220A23FFF7CAF96D
:1034B000204608210122FEF7B1FD204610210022FE
:1034C000FEF7ACFD204608210022FEF7A7FDC02034
:1034D0008DF8080002A9284601220A23FFF7B2F955
:1034E000204608210122FEF799FD204610210122E5
:1034F000FEF794FD204608210022FEF78FFD2C20C8
:103500008DF8080002A9284601220A23FFF79AF93C
:10351000204608210122FEF781FD204610210022CD
:10352000FEF77CFD204608210022FEF777FDC22031
:103530008DF8080002A9284601220A23FFF782F924
:10354000204608210122FEF769FD204610210122B4
:10355000FEF764FD204608210022FEF75FFD02A968
:10356000284601220A238DF80880FFF76BF92046D0
:1035700008210122FEF752FD204610210022FEF70D
:103580004DFD204608210022FEF748FDC3208DF89E
:10359000080002A9284601220A23FFF753F9204612
:1035A00008210122FEF73AFD204610210122FEF7F4
:1035B00035FD204608210022FEF730FD12208DF84F
:1035C000080002A9284601220A23FFF73BF92046FA
:1035D00008210122FEF722FD204610210022FEF7DD
:1035E0001DFD204608210022FEF718FDC4208DF89D
:1035F000080002A9284601220A23FFF723F92046E2
:1036000008210122FEF70AFD204610210122FEF7C3
:1036100005FD204608210022FEF700FD20208DF840
:10362000080002A9284601220A23FFF70BF92046C9
:1036300008210122FEF7F2FC204610210022FEF7AD
:10364000EDFC204608210022FEF7E8FCC6208DF89C
:10365000080002A9284601220A23FFF7F3F82046B2
:1036600008210122FEF7DAFC204610210122FEF794
:10367000D5FC204608210022FEF7D0FC0F208DF853
:10368000080002A9284601220A23FFF7DBF820469A
:1036900008210122FEF7C2FC204610210022FEF77D
:1036A000BDFC204608210022FEF7B8FCD02702A965
:1036B000284601220A238DF80870FFF7C3F8204638
:1036C00008210122FEF7AAFC204610210122FEF764
:1036D000A5FC204608210022FEF7A0FCA4208DF8BE
:1036E000080002A9284601220A23FFF7ABF820466A
:1036F00008210122FEF792FC204610210122FEF74C
:103700008DFC204608210022FEF788FCA1208DF8C0
:10371000080002A9284601220A23FFF793F8204651
:1037200008210122FEF77AFC204610210022FEF734
:1037300075FC204608210022FEF770FCE0208DF881
:10374000080002A9284601220A23FFF77BF8204639
:1037500008210122FEF762FC204610210122FEF71B
:103760005DFC204608210022FEF758FC02A92846ED
:1037700001220A238DF80870FFF764F8204608211B
:103780000122FEF74BFC204610210122FEF746FCE9
:10379000204608210022FEF741FC04208DF8080095
:1037A00002A9284601220A23FFF74CF820460821E7
:1037B0000122FEF733FC204610210122FEF72EFCE9
:1037C000204608210022FEF729FC0D2602A92846E2
:1037D00001220A238DF80860FFF734F820460821FB
:1037E0000122FEF71BFC204610210122FEF716FCE9
:1037F000204608210022FEF711FC4FF0110A02A911
:10380000284601220A238DF808A0FFF71BF820465E
:1038100008210122FEF702FC204610210122FEF7BA
:10382000FDFB204608210022FEF7F8FB13208DF84F
:10383000080002A9284601220A23FFF703F82046C0
:1038400008210122FEF7EAFB204610210122FEF7A3
:10385000E5FB204608210022FEF7E0FB2B208DF837
:10386000080002A9284601220A23FEF7EBFF2046A2
:1038700008210122FEF7D2FB204610210122FEF78B
:10388000CDFB204608210022FEF7C8FB4FF03F0B7E
:1038900002A9284601220A238DF808B0FEF7D2FFBC
:1038A000204608210122FEF7B9FB20461021012203
:1038B000FEF7B4FB204608210022FEF7AFFB5420A0
:1038C0008DF8080002A9284601220A23FEF7BAFF54
:1038D000204608210122FEF7A1FB204610210122EB
:1038E000FEF79CFB204608210022FEF797FB4C20A8
:1038F0008DF8080002A9284601220A23FEF7A2FF3C
:10390000204608210122FEF789FB204610210122D2
:10391000FEF784FB204608210022FEF77FFB1820DB
:103920008DF8080002A9284601220A23FEF78AFF23
:10393000204608210122FEF771FB204610210122BA
:10394000FEF76CFB204608210022FEF767FB02A968
:10395000284601220A238DF80860FEF773FF2046EF
:1039600008210122FEF75AFB204610210122FEF712
:1039700055FB204608210022FEF750FB0B208DF856
:10398000080002A9284601220A23FEF75BFF204611
:1039900008210122FEF742FB204610210122FEF7FA
:1039A0003DFB204608210022FEF738FB4FF01F08A0
:1039B00002A9284601220A238DF80880FEF742FF5B
:1039C000204608210122FEF729FB20461021012272
:1039D000FEF724FB204608210022FEF71FFB4FF0D4
:1039E000230902A9284601220A238DF80890FEF730
:1039F00029FF204608210122FEF710FB2046102156
:103A00000022FEF70BFB204608210022FEF706FBF2
:103A1000E1208DF8080002A9284601220A23FEF7BA
:103A200011FF204608210122FEF7F8FA2046102156
:103A30000122FEF7F3FA204608210022FEF7EEFAF3
:103A400002A9284601220A238DF80870FEF7FAFE23
:103A5000204608210122FEF7E1FA2046102101222A
:103A6000FEF7DCFA204608210022FEF7D7FA0420F0
:103A70008DF8080002A9284601220A23FEF7E2FE7B
:103A8000204608210122FEF7C9FA20461021012212
:103A9000FEF7C4FA204608210022FEF7BFFA0C20E8
:103AA0008DF8080002A9284601220A23FEF7CAFE63
:103AB000204608210122FEF7B1FA204610210122FA
:103AC000FEF7ACFA204608210022FEF7A7FA02A969
:103AD000284601220A238DF808A0FEF7B3FE2046EF
:103AE00008210122FEF79AFA204610210122FEF752
:103AF00095FA204608210022FEF790FA13208DF84F
:103B0000080002A9284601220A231326FEF79AFE7E
:103B1000204608210122FEF781FA204610210122C9
:103B2000FEF77CFA204608210022FEF777FA2C20C7
:103B30008DF8080002A9284601220A23FEF782FE1A
:103B4000204608210122FEF769FA204610210122B1
:103B5000FEF764FA204608210022FEF75FFA02A968
:103B6000284601220A238DF808B0FEF76BFE204696
:103B700008210122FEF752FA204610210122FEF709
:103B80004DFA204608210022FEF748FA44208DF81D
:103B9000080002A9284601220A23FEF753FE204608
:103BA00008210122FEF73AFA204610210122FEF7F1
:103BB00035FA204608210022FEF730FA51208DF810
:103BC000080002A9284601220A23FEF73BFE2046F0
:103BD00008210122FEF722FA204610210122FEF7D9
:103BE0001DFA204608210022FEF718FA2F208DF832
:103BF000080002A9284601220A23FEF723FE2046D8
:103C000008210122FEF70AFA204610210122FEF7C0
:103C100005FA204608210022FEF700FA02A92846EC
:103C200001220A238DF80880FEF70CFE20460821A9
:103C30000122FEF7F3F9204610210122FEF7EEF9EA
:103C4000204608210022FEF7E9F902A928460122B0
:103C50000A238DF80880FEF7F5FD20460821012291
:103C6000FEF7DCF9204610210122FEF7D7F92046A5
:103C700008210022FEF7D2F920208DF8080002A9C1
:103C8000284601220A23FEF7DDFD204608210122F5
:103C9000FEF7C4F9204610210122FEF7BFF92046A5
:103CA00008210022FEF7BAF902A9284601220A23B8
:103CB0008DF80890FEF7C6FD204608210122FEF788
:103CC000ADF9204610210022FEF7A8F92046082170
:103CD0000022FEF7A3F921208DF8080002A928464A
:103CE00001220A23FEF7AEFD204608210122FEF73D
:103CF00095F9204610210022FEF790F92046082170
:103D00000022FEF78BF902A9284601220A238DF82A
:103D10000860FEF797FD204608210122FEF77EF994
:103D20000A20FDF7A1FF204610210022FEF776F9B8
:103D3000204608210022FEF771F929208DF808009D
:103D400002A9284601220A23FEF77CFD204608210D
:103D50000122FEF763F90A20FDF786FF20461021B5
:103D60000022FEF75BF9204608210022FEF756F9F3
:103D700036208DF8080002A9284601220A23FEF702
:103D800061FD204608210122FEF748F92046102156
:103D90000122FEF743F9204608210022FEF73EF9F2
:103DA00000208DF8080002A9284601220A23FEF708
:103DB00049FD204608210122FEF730F90020FFF7D7
:103DC00077F807B0BDE8F08F2DE9F04383B0002409
:103DD000C4F20204164689460746204610210022F6
:103DE0009846FEF71BF9204608210022FEF716F937
:103DF00044F270652A20C2F200058DF801000DF131
:103E00000101284601220A23FEF71CFD2046082155
:103E10000122FEF703F9204610210122FEF7FEF8E9
:103E2000204608210022FEF7F9F8380A8DF8020032
:103E30000DF10201284601220A23FEF703FD0DF1D0
:103E40000301284601220A238DF80370FEF7FAFCCD
:103E5000204608210122FEF7E1F820461021012228
:103E6000FEF7DCF8204608210022FEF7D7F8300ADA
:103E70008DF8040001A9284601220A23FEF7E2FC7E
:103E80000DF10501284601220A238DF80560FEF791
:103E9000D9FC204608210122FEF7C0F82046102157
:103EA0000022FEF7BBF8204608210022FEF7B6F8F4
:103EB0002B208DF806000DF10601284601220A2369
:103EC000FEF7C0FC204608210122FEF7A7F8204695
:103ED00010210122FEF7A2F8204608210022FEF759
:103EE0009DF84FEA19208DF807000DF107012846CB
:103EF00001220A23FEF7A6FC02A9284601220A2372
:103F00008DF80890FEF79EFC204608210122FEF75E
:103F100085F8204610210122FEF780F8204608216E
:103F20000022FEF77BF84FEA18208DF809000DF10A
:103F30000901284601220A23FEF784FC0DF10A013B
:103F4000284601220A238DF80A80FEF77BFC2046D2
:103F500008210122FEF762F8204610210022FEF718
:103F60005DF8204608210022FEF758F82C208DF835
:103F70000B000DF10B01284601220A23FEF762FC1B
:103F8000204608210122FEF749F803B0BDE8F0837E
:103F90002DE9F04F83B015467F3A12F15F0FC0F064
:103FA0002A819B46421D01F10B030C9F002692B211
:103FB0009BB2C4F20206FFF707FF30461021012230
:103FC000FEF72CF83046082100224FF00008FEF7DB
:103FD00025F84FEA1B204FF69421019005EB450090
:103FE000C0F6000101EB800044F270664FEA172929
:103FF000A0F5C070C2F2000602AF0DF109050090F5
:1040000019E000BF30460DF10A0101220A238DF8A4
:104010000A90FEF717FC0C980DF10B018DF80B00C0
:10402000304601220A23FEF70DFC08F10108B8F121
:104030000C0F00F0D98000982C463D4610F908700E
:10404000B7F1FF3F10DD30460DF10A0101220A23CE
:104050008DF80A90FEF7F6FB0C980DF10B018DF828
:104060000B0030460DE000BF019829468DF808008E
:10407000304601220A23FEF7E5FB8DF809B03046F1
:10408000214601220A23FEF7DDFB5FFA87FA5FEA89
:104090004A6025D430460DF10A0101220A238DF829
:1040A0000A90FEF7CFFB0C980DF10B018DF80B0079
:1040B000304601220A23FEF7C5FB2F4625465FEA5C
:1040C0008A6023D5019839468DF8080030460122D0
:1040D0000A23FEF7B7FB8DF809B03046294624E0E5
:1040E000019829468DF80800304601220A232F4600
:1040F000FEF7A8FB3046214601220A238DF809B0BD
:104100002546FEF79FFB5FEA8A60DBD430460DF15F
:104110000A0101220A238DF80A90FEF793FB0C98FE
:104120000DF10B018DF80B00304601220A23FEF73A
:1041300089FB5FEACA600FD430460DF10A01012203
:104140000A238DF80A90FEF77DFB0C980DF10B0108
:104150008DF80B0030460CE0019839468DF80800C8
:10416000304601220A23FEF76DFB8DF809B0304678
:10417000294601220A23FEF765FB5FEA0A700FD485
:1041800030460DF10A0101220A238DF80A90FEF74C
:1041900059FB0C980DF10B018DF80B0030460CE02B
:1041A000019839468DF80800304601220A23FEF7AF
:1041B00049FB8DF809B03046294601220A23FEF753
:1041C00041FB5FEA4A707FF51DAF019839468DF8D3
:1041D0000800304601220A23FEF734FB8DF809B0AF
:1041E000304629461DE700BF0020C4F20200082126
:1041F0000122FDF713FF03B0BDE8F08F2DE9F04376
:1042000081B0DDF82080994615460E4604460746E3
:104210002A780A2A06D100BF0C36274601352A78AB
:104220000A2AF9D0B2B1B8B2EA2888BF0C36B1B2C6
:10423000B1F59A7F0ED8EA2888BF2746B8B24B4618
:10424000CDF80080FFF7A4FE063701352A780A2A48
:10425000E8D1E1E701B0BDE8F0830000B0B584B07B
:1042600044F20C5042F2000101230024C2F200008B
:10427000C4F20101C0F60073012503944FF48032AB
:10428000047680F82040C0E90A34C56180F83040E7
:1042900080E81600C0E903444561FCF7ABFF002845
:1042A00018BFFCF7BDFB029444F20C540E20C2F27E
:1042B0000004CDE9000569462046FCF7D3FE00283E
:1042C00018BFFCF7ADFB2046FCF772FF4FF08050A3
:1042D0004FF0C061C4E90A100125204684F830502F
:1042E000FCF788FF002818BFFCF79AFB0E20CDE9E9
:1042F00000050020CDE9020044F20C50C2F200009B
:104300006946FCF7AFFE002818BFFCF789FB04B034
:10431000B0BD0000B0B584B044F25450C2F2000009
:1043200042F200114FF080534FF0C065C4F201011A
:104330000024C0E90A5301254FF48032047680F846
:104340002040C56180F8305080E81600C0E9034481
:104350004561FCF74FFF002818BFFCF761FB0920FF
:10436000CDE9000544F25450C2F200006946CDE99F
:104370000244FCF777FE002818BFFCF751FB04B09D
:10438000B0BD000080B582B00020019043F630003F
:10439000C4F202000168002241F48001016000685B
:1043A000002100F48000019001983820FDF7BEFE46
:1043B000382002B0BDE88040FDF7A6BE2DE9F041EF
:1043C00086B0002643F630070596CDE90366CDE9B1
:1043D00001660096C4F20207386840F6004440F0D7
:1043E000800038603868C4F2020400F08000009059
:1043F00000980096386801AD40F0010038603868D8
:104400004FF0010800F00100009000980096386815
:10441000294640F002003860386800F00200009041
:1044200000980096386840F004003860386800F062
:104430000400009000980F20CDE90106A4F58060EB
:10444000CDF80C80FDF70CFD0096386801A940F00E
:1044500008003860386800F0080000900098009666
:10446000786940F480407861786900F48040009079
:1044700000980A2081E8410120462946FDF7F0FC1A
:10448000052001904FF40410CDE90208204629468A
:10449000FDF7E6FC062005210022FDF747FE062079
:1044A000FDF732FE082005210022FDF73FFE08201F
:1044B000FDF72AFE06B0BDE8F081000080B544F2A9
:1044C000706043F20001C2F20000C4F201014FF437
:1044D000827200234FF4007C80E80E000A21C0E9BC
:1044E0000333C0E9053CC361C0E90833C0E90A31C0
:1044F000FEF716F9002808BF80BDBDE88040FCF734
:104500008FBA000080B588B044F2C8600021C2F2C2
:1045100000004FF080424FF0FF330791CDE90511C5
:10452000CDE90211C0E90021C0E9021301618161F6
:10453000FEF73AFB002818BFFCF772FA4FF48050E0
:10454000049044F2C860C2F2000004A9FEF7DEFB4A
:10455000002818BFFCF764FA44F2C860C2F20000F9
:1045600002A9FEF7C3FA002818BFFCF759FA002089
:1045700001902020009044F2C860C2F20000694619
:10458000FEF7B4FA08B080BDFEE70000FEE70000C9
:104590002DE9F04F81B02DED0A8B44F2B050C2F2FC
:1045A0000000006840F6C008406840F6FF72A0F6C0
:1045B0000101C0F1000E11F5006F4FF00001C2F2D1
:1045C00000084FF0000B38BF4FF0000E0EEB0B074A
:1045D00007F1010C07F1020907F1030A3D1D7E1DD9
:1045E000BC1DF81D6FF3DF2738F8177092B26FF318
:1045F000DF2C974238BF3A4689B238F81C308F42D8
:104600006FF3DF2988BF3946934238BF1A4638F81E
:1046100019708B426FF3DF2A88BF1946974238BF63
:104620003A4638F81A308F426FF3DF2588BF394693
:10463000934238BF1A4638F815708B426FF3DF2665
:1046400088BF1946974238BF3A4638F816308F422D
:104650006FF3DF2488BF3946934238BF1A4638F8D3
:1046600014708B426FF3DF2088BF1946974238BF22
:104670003A4638F810008F4288BF3946904238BF1A
:10468000024688420BF1080B88BF0146BBF5006F5C
:104690009CD190B28BB210FA81F14A0840F6FF77B4
:1046A000BA42A3EB000038BF4F0842F2CA31FA28E1
:1046B00028F8017010DA42F2EC3218F8022042F2C7
:1046C000C830002128F80010002A42F2D43048F8FF
:1046D000001040F0528255E20EF6020C0EF601096F
:1046E0000EF5006A4FF0000B032340F2FF70002428
:1046F0000025002706E000BF0BF1010B012725462E
:104700000C4604330AEB030103396FF3DF2138F859
:1047100011108A420ED99E1E06EB0E016FF3DF21A7
:1047200038F811108A4205D8002F4BD00BF1010B3D
:1047300001273546264609EB030103396FF3DF21D4
:1047400038F811108A420DD9591E01EB0E046FF38F
:10475000DF2438F81440A24204D8AFB30BF1010BA8
:1047600001270D4631460CEB0304033C6FF3DF24B5
:1047700038F81440A2420EEB03040BD926466FF31F
:10478000DF2638F81660B24204D8FFB10BF1010BF6
:1047900001271D4683421DD004F500666FF3DF2616
:1047A00038F81660B242ABD901346FF3DF2438F821
:1047B0001440A242A4D8002F03F101049CD1012788
:1047C00004339FE70127B6E70127CCE70127194605
:1047D0008342E1D1BBF1020FC0F0BA81002F00F09B
:1047E000B781681A00EE100A01EE10BAB8EE400A5E
:1047F000B8EE411A80EE010A42F2E830404490EDF2
:10480000001A0020B8EE411A42F2D93244F2C864CC
:10481000C2F2000442F2DA3B01264FF0000A80EEB9
:10482000010AB1EE001A20EE010AB2EE041AC0EE3F
:10483000010A9FEDD70A9FEDD71A30EE802A31EE9C
:10484000600AF4EE410AF1EE10FAC8BFB0EE420A77
:104850009FEDD11A9FEDD12A30EE813A32EE601AE7
:10486000F4EE420AF1EE10FAC8BFB0EE431A9FED23
:10487000CC2A9FEDCC3A30EE824A33EE602AF4EE39
:10488000430AF1EE10FAC8BFB0EE442A9FEDC63AD3
:104890009FEDC64A30EE835A34EE603AF4EE440A95
:1048A000F1EE10FAC8BFB0EE453A9FEDC14A9FED58
:1048B000C15A30EE846A35EE604AF4EE450AF1EEF4
:1048C00010FAC8BFB0EE464A9FEDBB5A9FEDBB6AD7
:1048D00030EE857A36EE605AF4EE460AF1EE10FAC2
:1048E000C8BFB0EE475A9FEDB66A9FEDB67A70EE3C
:1048F000861A37EE606AF4EE470AF1EE10FAC8BF86
:10490000B0EE616A9FEDB07ADFEDB01A70EE872AE3
:1049100031EEE07AF4EE610AF1EE10FAC8BFB0EEC3
:10492000627ADFEDAB1ADFEDAB2A70EEA13A72EEE0
:10493000E01AF4EE620AF1EE10FAC8BFF0EE631A64
:10494000DFEDA52ADFEDA53A70EEA24A73EEE02A6C
:10495000F4EE630AF1EE10FAC8BFF0EE642ADFED60
:10496000A03ADFEDA04A70EEA35A74EEE03AF4EEFE
:10497000640AF1EE10FAC8BFF0EE653ADFED9A4A2C
:10498000DFED9A5A70EEA44AF4EE650A75EEE00A7D
:10499000DFED975AF1EE10FAC8BFF0EE640AF4EEBC
:1049A000650AF1EE10FAACBF0120F0EE605AF4EEA9
:1049B000653AF0EE650AF1EE10FAB8BFF0EE630A60
:1049C000F4EE602AF0EE604AF1EE10FAB8BFF0EEB5
:1049D000624AF4EE641AF0EE646AF1EE10FAB8BFBF
:1049E000F0EE616AB4EE667AF0EE667AF1EE10FAF5
:1049F000B8BFF0EE477AB4EE676AB0EE678AF1EEC0
:104A000010FAB8BFB0EE468AB4EE485AB0EE489AF3
:104A1000F1EE10FAB8BFB0EE459AB4EE494AB0EEE6
:104A200049AAF1EE10FAB8BFB0EE44AAB4EE4A3A81
:104A3000B0EE4ABAF1EE10FAB8BFB0EE43BAB4EE37
:104A40004B2AB0EE4BCAF1EE10FAB8BFB0EE42CA34
:104A5000B4EE4C1AF1EE10FAF4EE653AF0EE4C3A80
:104A60004FEA8000B8BFF0EE413AF1EE10FAF4EEF2
:104A7000602AB8BF0120F1EE10FAF4EE641AB8BF54
:104A80000220F1EE10FAB4EE667AB8BF0320F1EE20
:104A900010FAB4EE676AB8BF0420F1EE10FAB4EE73
:104AA000485AB8BF0520F1EE10FAB4EE494AB8BF33
:104AB0000620F1EE10FAB4EE4A3AB8BF0720F1EE44
:104AC00010FAB4EE4B2AB8BF0820F1EE10FAB4EE9B
:104AD0004C1AB8BF0920F1EE10FAB4EE630AB8BF61
:104AE0000A20F1EE10FAB8BF0B20C1B208F802009C
:104AF00042F2DC3208F80200C1EBC1004FF6087147
:104B0000C0F6000131F8205001EB8007204628F85C
:104B10000B60FEF7E1F820688562D7E90179C7628A
:104B2000E760C0F824A01420C4F20000066020460C
:104B3000FEF780F842F2E43028F8005042F2E0300C
:104B400048F8007042F2E83048F8009008F80BA0EE
:104B500042F2C830002128F8001042F2D43048F860
:104B6000001042F2EC3018F8000042F2DB3100286D
:104B70004FF0010008F8010004D042F2EC300021AF
:104B800008F80010BDEC0A8B01B0BDE8F08F00BF43
:104B90000AD7A3BC0AD7A33C0AD723BC0AD7233C15
:104BA0000AD7A3BB0AD7A33B6F1203BB6F12033B09
:104BB0006F1283BA6F12833A6F1203BA6F12033AFD
:104BC00017B751B917B7513917B7D1B817B7D13887
:104BD00017B751B817B75138ACC5A7B7ACC5A73789
:104BE000ACC527B7ACC52737ACC5A7B6ACC5A7368B
:104BF000002474492DE9F04F81B040F6C005C2F29F
:104C0000000542F2DB30285C002800F0638105F5E6
:104C1000105090ED000AB5EE400AF1EE10FA40F3A4
:104C200059819FEDAE1AB5EE002A20EE010A9FEDE4
:104C3000AC1A20EE020A42F2E830B4EE410A9FEDCF
:104C4000A92A2844F1EE10FAC8BFB0EE410A90ED4F
:104C5000003AB4EE420AF1EE10FAB8BFB0EE420AE2
:104C6000B8EE432A82EE003A80EE024AB4EE420ADF
:104C70009FED9D2AF1EE10FAB8BFB0EE434AB4EEB4
:104C8000424AF1EE10FAC0F225819FED982A31EEEA
:104C9000403AB4EE410A9FED961A30EE022AF1EE48
:104CA00010FAB8BFB0EE432AB4EE412A0020F1EE6C
:104CB00010FAA8BF0120B8BFB0EE421AB4EE412AE4
:104CC0009FED8C2A9FED8C3A8000F1EE10FA30EEC9
:104CD000033AB4EE420ABCBF0120022032EE404A41
:104CE000F1EE10FAB8BFB0EE443AB4EE413AF1EE4C
:104CF00010FABCBF0320B0EE431A9FED802A9FED4F
:104D0000803AB4EE420A30EE033A32EE404AF1EE17
:104D100010FAB8BFB0EE443AB4EE413AF1EE10FAF0
:104D2000BCBF0420B0EE431A9FED762A9FED763A81
:104D3000B4EE420A30EE033A32EE404AF1EE10FA97
:104D4000B8BFB0EE443AB4EE413AF1EE10FABCBF4F
:104D50000520B0EE431A9FED6D2A9FED6D3AB4EE3B
:104D6000420A30EE033A32EE404AF1EE10FAB8BF92
:104D7000B0EE443AB4EE413AF1EE10FABCBF062070
:104D8000B0EE431A9FED632A9FED633AB4EE420AF8
:104D900030EE033A32EE404AF1EE10FAB8BFB0EE10
:104DA000443AB4EE413AF1EE10FABCBF0720B0EE3F
:104DB000431A9FED5A2A9FED5A3AB4EE420A30EE5A
:104DC000033A32EE404AF1EE10FAB8BFB0EE443A80
:104DD000B4EE413AF1EE10FABCBF0820B0EE431A2F
:104DE0009FED502A9FED503AB4EE420A30EE033A5E
:104DF00032EE404AF1EE10FAB8BFB0EE443AB4EEEB
:104E0000413A9FED4A2AF1EE10FABCBF0920B0EEFC
:104E1000431A9FED473A32EE404AB4EE420A9FED04
:104E2000452A30EE033AF1EE10FAB8BFB0EE443A3C
:104E3000B4EE413A30EE020AF1EE10FAB8BF0A20A1
:104E4000B8BFB0EE431AB4EE410A42F2D932F1EEE5
:104E500010FAB8BF0B20AB5CC1B299424FF0000909
:104E600038D0A85442F2DC32A854C1EBC1004FF64E
:104E7000087144F2C864C0F60001C2F2000442F2B4
:104E8000DA384FF0010A31F8207001EB8006204635
:104E900025F808A0FDF720FF20688762D6E9016B9E
:104EA000C662E660C0F824901420C4F20000C0F886
:104EB00000A02046FDF7BEFE42F2E4302F5242F23F
:104EC000E0302E5042F2E83045F800B04FF48070E8
:104ED00025F8080001B0BDE8F08F00BF0000704366
:104EE00000E6AA4900009644CDCC8C3F00E6AAC952
:104EF000A5D468530060EA480060EAC800606A48C8
:104F000000606AC80060EA470060EAC700803B476B
:104F100000803BC70080BB460080BBC600803B468C
:104F200000803BC600009645000096C5000016456F
:104F3000000016C5000096C42DE9F04744F2B050B9
:104F4000C2F20000006840F6C009C2F2000942F255
:104F5000D931406819F801E04FF60872CEEBCE0166
:104F6000C0F6000202EB8101B1F80E809FED151A28
:104F700000EE108AB8EE400A80EE010AA0F60101A8
:104F800042F2C43C404211F5006F59F80C106FF327
:104F9000DF2038BF0020421A38BF02F50062B2F5A8
:104FA000806F164628BF4FF48066022A10D242F264
:104FB000C83119F8011049F80C00002900F060818F
:104FC000BDE8F08700007043000070420000000060
:104FD0004A1C6FF3DF2139F8115042F2C93119F838
:104FE000013042F2CA3139F801106FF3DF22A6F125
:104FF00002063BB934E000BF0432043E731C6FF379
:10500000DF22D4D039F812708D4201D98F4251D9A4
:10501000002ECCD0531C6FF3DF2339F813508F428E
:1050200001D98D4245D9012EC1D0931C6FF3DF23E6
:1050300039F813708D4201D98F423AD9022EB6D079
:10504000D31C6FF3DF2339F813508F42D4D98D422C
:10505000D2D82EE00432043E731C6FF3DF22A6D0B8
:1050600039F812708D4201D28F4223D2002E9ED089
:10507000531C6FF3DF2339F813508F4201D28D4256
:1050800017D2012E3FF493AF931C6FF3DF2339F84F
:1050900013708D4201D28F420BD2022E3FF487AFA4
:1050A000D31C6FF3DF2339F813508F42D2D28D42D5
:1050B000D0D31A461FED3C1A42F2C43120EE011A39
:1050C000B6EE002A49F8010042F2CC30012131EE5F
:1050D000021A09F8001042F2D030BCEEC11A49F8A9
:1050E000002011EE100AA2EB0008AEF10300082820
:1050F00000F2DE804FF0000A41F6E27E4FF4005CE1
:1051000009F5805308EB0A0420466FF3DF2039F8D5
:10511000105009EB4A0233F81000671C22F80C50BB
:1051200009EB0E05A5F8FE016FF3DF2739F817002C
:10513000A61C288433F817006FF3DF26A5F80002B9
:1051400039F8160033F81660E11C02F50052908021
:10515000A5F802626FF3DF2139F811000AF1100A95
:10516000A88433F81100211DA5F804026FF3DF2194
:1051700039F81100BAF1F00FE88433F8110004F1A6
:105180000501A5F806026FF3DF2139F811000EF1D1
:10519000200E288533F8110004F10601A5F8080255
:1051A0006FF3DF2139F81100688533F8110004F13D
:1051B0000701A5F80A026FF3DF2139F81100A8856D
:1051C00033F8110004F10801A5F80C026FF3DF2198
:1051D00039F81100E88533F8110004F10901A5F848
:1051E0000E026FF3DF2139F81100288633F8110021
:1051F00004F10A01A5F810026FF3DF2139F811005C
:10520000688633F8110004F10B01A5F812026FF360
:10521000DF2139F81100A88633F8110004F10C01E0
:10522000A5F814026FF3DF2139F81100E88633F88E
:10523000110004F10D01A5F816026FF3DF2139F812
:105240001100288733F8110004F10E01A5F81802A7
:105250006FF3DF2139F81100688733F8110004F18A
:105260000F01A5F81A026FF3DF2139F81100A887A2
:1052700033F81100A5F81C027FF444AFA2E200BF8E
:1052800042F2D43159F801200132332A49F8012081
:10529000FFF496AE42F2CC320023A0EB080809F8E6
:1052A000023049F80130AEF1030008287FF622AF42
:1052B000B7EE001AB4EE410AF1EE10FA80F2548112
:1052C00041F6F6701FEDBF2A09EB0001F02209F547
:1052D000805300BFBCEEC23A13EE100A4044471C94
:1052E0006FF3DF2039F81060B8EE434A6FF3DF2721
:1052F00032EE443A04EE106A39F81760B8EE444AC8
:1053000006EE106A31EE435AB8EE466A23EE066A9C
:1053100024EE054A34EE064ABDEEC44A14EE106A85
:1053200021F80A6F33F8100030EE022A04EE100A5A
:1053300033F81700B8EE444A06EE100AB8EE466A93
:1053400023EE063A24EE054A34EE033ABDEEC33AA4
:1053500013EE100ABCEEC23AA1F8E00113EE100AF7
:105360004044471C6FF3DF2039F81060B8EE434A21
:105370006FF3DF2732EE443A04EE106A39F8176013
:10538000B8EE444A06EE106A31EE435AB8EE466A69
:1053900023EE066A24EE054A34EE064ABDEEC44A00
:1053A00014EE106A4E8033F8100030EE022A04EE3C
:1053B000100A33F81700B8EE444A06EE100AB8EEA9
:1053C000466A23EE063A24EE054A34EE033ABDEE71
:1053D000C33A13EE100ABCEEC23AA1F8E20113EE92
:1053E000100A4044471C6FF3DF2039F81060B8EE14
:1053F000434A6FF3DF2732EE443A04EE106A39F87D
:105400001760B8EE444A06EE106A31EE435AB8EE21
:10541000466A23EE066A24EE054A34EE064ABDEEDD
:10542000C44A14EE106A8E8033F8100030EE022A5F
:1054300004EE100A33F81700B8EE444A06EE100ADC
:10544000B8EE466A23EE063A24EE054A34EE033AF5
:10545000BDEEC33A13EE100ABCEEC23AA1F8E40165
:1054600013EE100A4044471C6FF3DF2039F8106038
:10547000B8EE434A6FF3DF2732EE443A04EE106A87
:1054800039F81760B8EE444A06EE106A31EE435A16
:10549000B8EE466A23EE066A24EE054A34EE064A62
:1054A000BDEEC44A14EE106ACE8033F8100030EE20
:1054B000022A04EE100A33F81700B8EE444A06EE4A
:1054C000100AB8EE466A23EE063A24EE054A34EE98
:1054D000033ABDEEC33A13EE100ABCEEC23AA1F88D
:1054E000E60113EE100A4044471C6FF3DF2039F841
:1054F0001060B8EE434A6FF3DF2732EE443A04EE11
:10550000106A39F81760B8EE444A06EE106A31EEB8
:10551000435AB8EE466A23EE066A24EE054A34EE94
:10552000064ABDEEC44A14EE106A0E8133F810002C
:10553000053A04EE100A33F81700B8EE444A06EEB6
:10554000100AB8EE466A23EE063A24EE054A34EE17
:10555000033ABDEEC33A13EE100A30EE022AA1F868
:10556000E8017FF4B7AE2DE141F6EA7009EB0001E6
:105570000022B6EE001A4FF4005C09F5805300BF1C
:1055800002EE102AB8EE422A22EE002A32EE012A5A
:10559000BCEEC22A12EE100A08EB00076FF3DF27F9
:1055A00039F8176009EB420020F80C6033F81770E7
:1055B00000F50050A1F8F671571C02EE107AB8EE13
:1055C000422A22EE002A32EE012ABCEEC22A12EE54
:1055D000107A47446FF3DF2739F8176021F8186F06
:1055E00033F81770A1F8E071971C02EE107AB8EE4C
:1055F000422A22EE002A32EE012ABCEEC22A12EE24
:10560000107A47446FF3DF2739F81760868033F844
:105610001700A1F8E201D01C02EE100AB8EE422AEF
:1056200022EE002A32EE012ABCEEC22A12EE100A45
:1056300040446FF3DF2039F810708F8033F810008A
:10564000A1F8E401101D02EE100AB8EE422A22EE83
:10565000002A32EE012ABCEEC22A12EE100A4044A1
:105660006FF3DF2039F81070CF8033F81000A1F805
:10567000E601501D02EE100AB8EE422A22EE002A80
:1056800032EE012ABCEEC22A12EE100A40446FF339
:10569000DF2039F810700F8133F81000A1F8E8010D
:1056A000901D02EE100AB8EE422A22EE002A32EED7
:1056B000012ABCEEC22A12EE100A40446FF3DF202A
:1056C00039F810704F8133F81000A1F8EA01D01DAD
:1056D00002EE100AB8EE422A22EE002A32EE012A29
:1056E000BCEEC22A12EE100A40446FF3DF2039F8F4
:1056F00010708F8133F81000A1F8EC0102F108005E
:1057000002EE100AB8EE422A22EE002A32EE012AF8
:10571000BCEEC22A12EE100A40446FF3DF2039F8C3
:105720001070CF8133F81000A1F8EE0102F10900EA
:1057300002EE100AB8EE422A22EE002A32EE012AC8
:10574000BCEEC22A12EE100A40446FF3DF2039F893
:1057500010700F8233F81000A1F8F00102F10A0076
:1057600002EE100AB8EE422A22EE002A32EE012A98
:10577000BCEEC22A12EE100A40446FF3DF2039F863
:1057800010704F8233F81000A1F8F20102F10B0003
:1057900002EE100AB8EE422A22EE002A32EE012A68
:1057A000BCEEC22A12EE100A40446FF3DF2039F833
:1057B00010700C328F8233F81000F02AA1F8F40137
:1057C0007FF4DEAE42F2C83019F8000002287FF400
:1057D000F7AB42F2CC3019F80000002808BFBDE852
:1057E000F08742F2D830012109F8001044F20C5041
:1057F000C2F20000FBF76EFF44F25450C2F2000008
:10580000FBF768FF43F64440002109F80010BDE8AB
:10581000F08700002DE9F04F88B040F6C00BC2F2CF
:10582000000B41F6E8700BEB0001002240F6FF731D
:10583000F027002031F8186F9BB29E4292B238BF19
:105840003346964288BF32464D8830449D4238BF29
:105850002B46954288BF2A468E8828449E4238BFF0
:105860003346964288BF3246CD8830449D4238BF89
:105870002B46954288BF2A460E8928449E4238BF4F
:105880003346964288BF32464D8930449D4238BFE8
:105890002B46954288BF2A468E8928449E4238BFAF
:1058A0003346964288BF3246CD8930449D4238BF48
:1058B0002B46954288BF2A460E8A28449E4238BF0E
:1058C0003346964288BF32464D8A30449D4238BFA7
:1058D0002B46954288BF2A468E8A28449E4238BF6E
:1058E0003346964288BF3246CD8A30449D4238BF07
:1058F0002B46954288BF2A460C3F28449AD148F649
:10590000890CC8F6880CA0FB0C0798B200EE100AB0
:10591000B8EE401A9FEDE90A9FEDE94A92B221EEF6
:10592000001A131A21EE045A01EE102AFA09B8EEF1
:10593000411A02EE102A21EE001AB8EE422A42F273
:10594000F03021EE046A22EE002A584436EE451A61
:1059500022EE042A80ED001A80ED012A80ED025A21
:1059600080ED036A00207C2B88BF01204FF40F5389
:105970000BF8030042F2DE1000220BEB000740F6AA
:10598000FF73F026002000BF37F8185F9BB237F88E
:10599000164C92B29C4238BF2346944288BF22469E
:1059A00037F8141C2044994238BF0B46914288BFF7
:1059B0000A4637F8124C08449C4238BF23469442AA
:1059C00088BF224637F8101C2044994238BF0B4646
:1059D000914288BF0A4637F80E4C08449C4238BFB3
:1059E0002346944288BF224637F80C1C2044994233
:1059F00038BF0B46914288BF0A4637F80A4C084424
:105A00009C4238BF2346944288BF224637F8081C80
:105A10002044994238BF0B46914288BF0A4637F866
:105A2000064C08449C4238BF2346944288BF224615
:105A300037F8041C2044994238BF0B46914288BF76
:105A40000A4637F8024C08449C4238BF2346944229
:105A500088BF22469D42204438BF2B46954288BFCE
:105A60002A460C3E28448FD1A0FB0C01C90903EE45
:105A7000101AB8EE437A9FED933A98B225EE035A86
:105A800085EE005A26EE036A86EE006A92B201EEB7
:105A9000100A02EE102AB8EE411AB8EE422A21EEA0
:105AA000001A22EE002A131A21EE041A42F2F030F4
:105AB00022EE042A27EE007A584427EE044A32EEFA
:105AC000417A80ED0A7A80ED0B4A80ED0C1A80ED68
:105AD0000D2A002042F2C13100937C2B88BF0120A7
